:1010000000020020A51F0000411F0000FD1E00007F
:10101000511F0000611F0000711F00000000000050
:10102000000000000000000000000000E11E0000C1
:10103000811F000000000000951E0000911F0000AD
:10104000FFDA000005EB0000FFDA00006923000072
:1010500085230000FFDA0000FFDA0000FFDA00005D
:10106000FFDA00004DDF000053DF0000FFDA000070
:10107000FFDA0000FFDA0000FFDA0000FFDA00000C
:10108000FFDA000069DC0000FFDA0000FFDA000090
:10109000FFDA0000FFDA0000FFDA0000FFDA0000EC
:1010A000FFDA0000FFDA000059DF00005FDF000018
:1010B000FFDA0000FFDA000000000000000000007E
:1010C000FFDA0000FFDA0000FFDA0000A1230000D1
:1010D000FFDA0000FFDA0000FFDA0000C1E40000E0
:1010E000FFDA0000FFDA0000FFDA00000000000075
:1010F00000000000FFDA000000000000BD23000037
:1011000000B50848A1B0082100F058FB064812F0CD
:10111000D3FA064812F0D0FA80226946002010F077
:1011200009F8F9E710030020585701007F57010024
:1011300070B5064E064CA41BA4080025AC4200D195
:1011400070BD56F8253098470135F7E7AC7E0100B1
:10115000D47E010013B500200DF09CF9014608B9BA
:1011600000F03EF80A4C204611F036FB204610F005
:10117000ADFA2046074910F049FD074B0748009497
:1011800001224FF4806111F033FB02B010BD00BFAB
:1011900050030020400900209D5701004005002019
:1011A000704708B5032113200CF0ACFCBDE80840E3
:1011B00013200CF0D5BC000008B5EFF30583DBB2BB
:1011C00043B9EFF310832BB9044812F075FA00F01D
:1011D000BFFCFCE70149032000F03AF8A3570100E7
:1011E00008B57146024813F049FCFFF7E5FF00BF60
:1011F000B557010008B5FFF79BFF034812F05CFAF2
:10120000FFF77EFF002008BDBE5701001FB5EFF3BA
:10121000108372B6074B029300230193064B009391
:10122000072204234FF4C061044800F0E9FC00F0F9
:101230001BFE00BFF6570100F511000070100020E2
:1012400008B50DF077FDBDE8084010F053BA7047BF
:1012500008B50D4B1A680C467AB901221A60FFF7DF
:10126000F6FF2146094813F009FC0DF08BFD0A201A
:1012700012F012FD064812F01FFAEFF3108372B657
:1012800000F07CFDFFF78DFF70160020FB5701007A
:101290001758010070B50D460021044600F09EFA73
:1012A0000D4E70B9BFF35B8FE288BFF35B8F33885D
:1012B00012B21BB29A4204D06DB90121204600F04F
:1012C0008DFA3388BFF35B8FE380BFF35B8FA38816
:1012D0000133A380012070BD481700200021FFF7D3
:1012E000D9BF000008B50F4BBFF35B8FC188BFF3B8
:1012F0005B8F1B8809B21BB2994201D0FFF770FFC8
:101300008388002BFAD0013B9BB2838043B9BFF3A3
:101310005B8FC380BFF35B8FBDE8084000F094BAD9
:1013200008BD00BF481700202DE9F04704460E46CF
:101330001746EFF3108872B60568C5B9DFF88890D4
:10134000051DD4E90331A2689A1A8A4222DC1D4A9B
:1013500012883280581C6269E0600B4096E80300F6
:1013600002EBC30383E8030088F3108810E055F80C
:101370000C390360D1E900012B6983E8030028469A
:101380000C2100F0DDFA687988F3108800F018FB72
:10139000012714E08FB1D9F800A00921504600F0D0
:1013A000CFFA5146284600F00DFC88F3108800F073
:1013B000E9FBEFF3108872B6C3E788F3108838466C
:1013C000BDE8F08748170020BC16002070B50B461A
:1013D00004461046EFF3108672B6D4E9022191421A
:1013E0001DD0501CA060206961696568024001EB56
:1013F000C20292E8030083E803001DB986F3108857
:10140000012070BD55F80C39636028460C2100F0AE
:1014100097FA687986F3108800F0D2FAF0E778B18D
:10142000094A156809212B61284600F089FA2946E6
:10143000204600F0C7FB86F3108800F0A3FBDFE72F
:1014400086F31088DDE700BFBC160020F8B504461F
:10145000EFF3108672B6334F3B685A6A002A5BD0AE
:10146000D3E90620904257D0501C9861186A024078
:1014700039B9596929B9511C03D186F3108810462E
:10148000F8BD002A4CDB596A01EBC20103C984E8AC
:1014900003005D699DB9002A2CDA0421184600F08A
:1014A0004FFA86F31088204B4FF080525A60BFF3FA
:1014B0006F8F3B681B79042B1ED1FFF791FE55F807
:1014C0000C195961002A0DDBD3E9072099695C6A80
:1014D000511A8842A9BF511C4FF0FF320240D96116
:1014E00004EBC2042B6993E8030084E803002B7922
:1014F000062B03D186F310880122C0E7002328467B
:101500002B610C2100F01CFA687986F310880E28F4
:10151000F2D800F055FAEFE74FF0FF320029A8D0DB
:101520001C61B6E7BC16002000ED00E00346D0E9E0
:10153000072010B59C69141BA04201DA002010BDE1
:10154000541C0240DC61F9D4586A00EBC20203C9A2
:1015500082E803001A896FEA42426FEA52421A8116
:10156000184600F095FA0120E9E7000008B50E4B97
:1015700053F82130A3B11A79042A0BD103C81A6990
:1015800082E8030018460C2100F0DAF9074B01202D
:10159000186008BD01461846BDE80840FFF7C6BF01
:1015A0004FF0FF30F5E700BFC4160020B81600204A
:1015B0002DE9F0411D46294B53F82140284B1B884B
:1015C0000380064690462CB985F310884FF0FF3013
:1015D000BDE8F081234B1F682379042B34D00146EA
:1015E0002046FFF7A3FF78B185F310883B79062BDF
:1015F00002D01D4B1B682BB11C4B4FF080525A6020
:10160000BFF36F8F0120E3E7B8F1000F02D185F33C
:101610001088DDE73B793E61062B14BF05210621CA
:10162000384600F08DF904F11400394600F0CAFA8A
:1016300023896FEA43436FEA53432381204600F036
:1016400027FA85F31088D7E7D0E90001236983E8FA
:1016500003000C21204600F073F9F2E7C4160020C5
:1016600048170020BC160020B816002000ED00E04E
:1016700010B50146EFF3108472B6054B1B8803804A
:10168000044B1868FFF752FF84F3108810BD00BFA9
:1016900048170020BC16002021230380FFF766BFF7
:1016A000EFF30583DBB20BB1FFF7F6BF064B1B88E8
:1016B0001BB2994201D1FFF7DBBFEFF3108372B683
:1016C0000122FFF775BF00BF4817002010B4EFF3E9
:1016D000058212F0FF0203D05DF8044BFFF7DCBF78
:1016E000074B1B881BB2994203D15DF8044BFFF7EF
:1016F000BFBFEFF3108372B65DF8044BFFF758BF1E
:1017000048170020104B1B881BB29A422DE9F0416C
:1017100006460C46154601D1FFF762FDEFF310882F
:1017200072B60A4B1F680621384600F009F996E8A0
:1017300003003C61434684E8030001222946204619
:10174000BDE8F041FFF734BF48170020BC16002069
:1017500038B5EFF3108572B60F4BB0F9002053F88F
:1017600022400CB9FFF73CFD2379062B04D085F30A
:1017700010884FF0FF3038BD03C9236983E80300A8
:1017800020460C2100F0DCF8607985F3108800F029
:1017900017F90120EFE700BFC41600200021FFF772
:1017A00055BE0121FFF752BE034B1B68586A10B1AA
:1017B000D3E90630C01A7047BC16002008B5064BA6
:1017C0004A1E1B681140586201D0FFF709FDC3E9AA
:1017D00006111A6208BD00BFBC16002070B5044691
:1017E0000846EFF3108672B6236833B94FF0FF3323
:1017F000236086F31088012070BD11B986F310882C
:10180000FAE70F4B1D680DB9FFF7EAFC03212846E4
:1018100000F096F8236801330DD105F10C03236025
:101820000023EB6086F31088064B4FF080525A601D
:10183000BFF36F8FDFE72946204600F0C3F9F1E7D9
:10184000BC16002000ED00E038B50446EFF310852B
:1018500072B6006810B985F3108838BD431C02D1F8
:1018600000232360F7E750F80C3923600C2100F0C7
:1018700067F8236813B94FF0FF33236085F31088AE
:10188000034B4FF080525A60BFF36F8FE5E700BF04
:1018900000ED00E008B503790B2B04BF0C230371A6
:1018A000836A1A68934208D0B0F90610034813F00F
:1018B000E5F803490D20FFF7CBFC08BD24580100D3
:1018C0005358010070B5184C184E2368356843BB57
:1018D00015B12846FFF7DEFF00F00AFB2368002B56
:1018E000FAD00020124B00221A602368114AB3FA82
:1018F00083F352F823301C680C3C0B23AC42237159
:101900000DD008B1FFF7C6FF0B4BA16AB4F9062052
:101910001A801F31094A3460022000F01FFA204665
:1019200070BD2846DEE700BF74160020BC160020FC
:10193000B816002078160020481700200800061668
:101940000A2930B503791AD90A2B14D842791A4BCF
:1019500053F8225000F10C047DB12D68C56053F896
:1019600022502C6043F82240144C4FF00043D340E7
:10197000226813432360017130BDC460F2E70A2B73
:10198000F9D945790C4A52F825303BB11C68A3427D
:101990000BBF0023246842F825301C60437952F8BD
:1019A0002320002AE7D1054C4FF00042DA4023689B
:1019B00023EA0203DEE700BF781600207416002039
:1019C0000B4B1B685A791B790A2B01D990420DD217
:1019D000EFF30583DBB21BB1064B01221A6070479F
:1019E000054B4FF080525A60BFF36F8F704700BFB6
:1019F000BC160020B816002000ED00E008B5EFF39B
:101A0000108372B6084B094A1B88094C1BB200218F
:101A100042F82310074A20681368013B1360FFF760
:101A20008FFF216000F020FA48170020C416002024
:101A3000BC160020C016002010B50346EFF310843A
:101A400072B6028902EA010022EA01021A8184F3D5
:101A5000108810BD0C4A034610B51068EFF31084CF
:101A600072B6028913420CD103610721FFF768FFA8
:101A700084F31088054B4FF080525A60BFF36F8F8C
:101A800010BD84F31088FBE7BC16002000ED00E0D9
:101A900010B50379048A072B03D0082B0CD000243F
:101AA00008E003891C4005D00C21FFF749FF054BD6
:101AB00001221A60204610BD03899C43EFD1012406
:101AC000F2E700BFB816002038B5054B1D68044684
:101AD000FFF7C0FF21462846BDE83840FFF7ACBFFE
:101AE000BC16002010B5EFF3108472B6038902799A
:101AF0001943072A038A018104D0082A13D084F3EA
:101B000010880FE01942FAD00C21FFF719FF074B9C
:101B100001221A6084F31088054B4FF080525A60FE
:101B2000BFF36F8F10BD8B43E9D1EDE7B8160020EE
:101B300000ED00E0431E9BB21F2B05D8034B53F86A
:101B4000200010B1C06A704700207047C416002002
:101B500010B5EFF30583DBB27BB9EFF3108472B6F7
:101B6000064B02211868FFF7EBFE84F31088044B44
:101B70004FF080525A60BFF36F8F10BDBC1600202B
:101B800000ED00E0EFF3108072B60B4B1B681A7982
:101B90000A2A07D95A79094B53F8221011B109685A
:101BA00043F8221080F31088054B4FF080525A60A2
:101BB000BFF36F8F704700BFBC160020781600205F
:101BC00000ED00E038B50B790A2B01D9FFF708FBCF
:101BD0004C7901F10C020346006818B110F8075C5B
:101BE000A542F8D9C8601A6038BD03460144814255
:101BF00002D90268824201D0C01A70470430F6E769
:101C00000F2A2DE9F84F05468A469046994632D864
:101C100010F003031DBFC3F10402043B5B180B4625
:101C2000A3F1340318BFAD1823F0030319F0080F14
:101C300005EB030416D02D60EFF3108B72B6284A23
:101C40000126114652F8047FC7B10136212EF9D181
:101C50008BF310886FF08A063EE012600432A242D5
:101C6000FBD3E9E72A46FAE702212046FFF768FEA0
:101C70008BF3108830E06FF015062DE036B22A465F
:101C800041F82640DDE90A01E68000F09FF80C9B50
:101C9000144AE3624FF0FF33C4E908371368206049
:101CA000013319F0010FC4E90377C4E90577A56290
:101CB000C4F830A084F805802771E7611360D3D1A0
:101CC0000C212046FFF73CFE19F0040FD0D18BF316
:101CD00010884046FFF774FE3046BDE8F88F00BF1D
:101CE000C4160020C016002008B5034B53F820008E
:101CF00008B9FFF775FA08BD507801000C4B0D4A82
:101D000010B540219A600C4CE02283F82220D9774C
:101D10000022A0180132302A80F80013F9D11A6984
:101D200042F010021A615A6942F400725A6110BD01
:101D300000ED00E00010000000E100E0064BD3F8E9
:101D4000942042F00502C3F894205A6A42F480328B
:101D50005A620020704700BF00ED00E0064B21F002
:101D60001F0142F00102C3F89800C3F89C10002044
:101D7000C3F8A020704700BF00ED00E008B5EFF306
:101D80000581C1F3080119B10548103912F076FE3A
:101D9000044BD3F8F030DB0700D500BE08BD00BF10
:101DA000CC58010000ED00E0BFF34F8F0549064B12
:101DB000CA6802F4E0621343CB60BFF34F8F00BFE9
:101DC000FDE700BF00ED00E00400FA051A4422F030
:101DD000030210B54FF0773442F8044C540758BF53
:101DE0004FF08834A2F104035CBF42F8084CA2F122
:101DF00008034FF0807243E902020D4A43F80C2CAD
:101E00000020032243E9052043F8201C012202247C
:101E1000194643E907246FF0020241F8242D0B22F2
:101E200041F8042D013A032AFAD1A3F1440010BD70
:101E3000FD190000054B064A06481968914201D178
:101E4000834201D3C01A70470433F6E70000002034
:101E5000FEE7FEE700020020EFF308807047000075
:101E600000487047000000200023E1EE103AEFF335
:101E7000148323F0040383F31488BFF36F8FEFF30D
:101E8000108362B6024B4FF080525A60BFF36F8FDF
:101E900000ED00E0114910B50C6872B6FFF712FDB5
:101EA00062B6A04208BF10BD2146BDE8104049B14E
:101EB000EFF309821EF0100F08BF22ED108A22E90D
:101EC000F04F0A600068B0E8F04F1EF0100F08BF36
:101ED000B0EC108A80F3098870470000BC1600201F
:101EE000024B4FF080525A60704700BF00ED00E097
:101EF00030BF62B6BFF36F8F72B670470D4B0E4A9C
:101F00000E496846904203D8984201D9002102E068
:101F100009468D46012104207246024202D1EFF3A8
:101F2000088001E0EFF309802DE9F00F6B4600F027
:101F30008FF800BF5801002000000420000200209C
:101F400008B502490620FFF783F900BFDB580100FE
:101F500008B502490520FFF77BF900BFE7580100EB
:101F600008B502490820FFF773F900BFFA580100CD
:101F700008B502490920FFF76BF900BF0C590100B1
:101F800008B502490A20FFF763F900BF2059010094
:101F900008B502490B20FFF75BF900BF3259010079
:101FA00070477047204AD2F8883043F4700310B568
:101FB000C2F88830FFF7F4FF6A461C4B1C491C46E8
:101FC00093422DD31B4B1C48DA1C121AC11E22F05F
:101FD0000302994288BF0022184912F03BF9184BBE
:101FE0001848DA1C121AC11E22F00302994288BF57
:101FF0000022002111F0F0FC24B1134A1349012002
:10200000FFF7ACFEFFF79AFEFFF7CBFF00F064F995
:10201000FFF7C6F811F0E0FABDE81040FFF7F6B898
:1020200043F8041BCCE700BF00ED00E000000020F7
:10203000FEE7FEE70C03002000020020887F01007D
:102040002C63002010030020080006161F0000204B
:102050002DE9F04F9A46564B8FB093469A6B0392F8
:102060005A6B0492D3F82880DA6A05921A6BDB6BFC
:102070000793504B06921A684F4B9A4204460E46FD
:1020800002D04E4811F018FB002E62D04C4811F0DF
:1020900013FB4C4B4C48198809B212F0EFFC002599
:1020A0002F464A4811F008FB4146494812F0E6FC29
:1020B0000599484812F0E2FC0699474812F0DEFC08
:1020C0000799464812F0DAFC18F4004F03D0039940
:1020D000434812F0D3FC18F0800F03D00499414814
:1020E00012F0CCFC404811F0E7FA4048594612F093
:1020F000C5FC002E29D11BF0080F53D0314B1E8890
:1021000036B23046FFF716FD31460246384812F027
:10211000B5FC384811F0D0FA3946374812F0AEFC19
:102120006946364BC91A03D53548494212F0A6FC18
:1021300020468268C36801698C4641698E46AD4677
:10214000514691E8F00F416800682E490720FFF7DB
:102150007FF8D4E90230D4E90679D4E90012089076
:102160002069099060690A9019F4007F26480B9154
:10217000CDE90C230CBF04F1200504F1240511F076
:102180009BFA089B0B9900932048DDE90C2312F081
:1021900075FCDDE90912CDF800903B461C4812F0B1
:1021A0006DFC7EE7217F1B48103912F067FCB0E719
:1021B00000ED00E000000020FEE7FEE740590100CE
:1021C0005659010048170020855901002F5A010077
:1021D000385A0100485A0100585A0100685A010053
:1021E000785A0100885A0100985A01009D5A01004E
:1021F000AF5A0100EE5A01001F5B01005801002098
:10220000475B0100745B010099590100B45901005A
:10221000F1590100C85A010070470000EFF3108126
:1022200072B6094A13680133012B136009D14FF0CC
:1022300080420020C2F800011360D2F80031002B68
:10224000FBD081F3108870474C170020094A08B56D
:1022500013680BB9FEF7C4FFEFF3108172B6136871
:10226000013B13601BB94FF0804301225A6081F398
:10227000108808BD4C170020084A107868B94FF044
:1022800080430121C3F81815C3F804019960D3F8FD
:1022900004110029FBD00123137070474A17002056
:1022A0004FF0704393F8E02F062A12D1D3F8E40FD1
:1022B00010F00F000DD1D3F8E82F02F0F002302A11
:1022C00008D1D3F8EC3F13F0F00F0CBF0120002031
:1022D000704700207047000010B5FFF7E1FF30B1F4
:1022E000184AD2F8FC3023F08073C2F8FC30FFF7B4
:1022F000D7FF20B14FF080430322C3F8A025FFF79A
:10230000CFFF30B14FF080430022C3F80C21C3F857
:1023100010214FF080430124C3F87845D3F84026BC
:10232000A24208BFC3F88045FFF776FF064BC3F80B
:102330004045FFF7E3FCFEF783FFBDE810400CF0DB
:1023400018BD00BF00ED00E000E00140044B1B6839
:102350002BB1044B4FF080525A60BFF36F8F704720
:10236000B816002000ED00E008B5044A044B1068E0
:102370001B689847BDE80840FFF7E8BF50170020EA
:102380006017002008B5044A044B50685B68984702
:10239000BDE80840FFF7DABF5017002060170020A3
:1023A00008B5044A044B90689B689847BDE808400C
:1023B000FFF7CCBF501700206017002008B5044A73
:1023C000044BD068DB689847BDE80840FFF7BEBF04
:1023D000501700206017002008B5C82100200CF01D
:1023E00071FD643808BD70B505460C46FFF7F4FF73
:1023F0004FF47A7605FB00F3744393FBF6F303EB9B
:102400004500844205D2FFF7E7FF604390FBF6F0FA
:10241000204470BD43885BBA9BB2043318447047B4
:1024200008B5084B42881B7852BA92B29A4207D13B
:102430000549043012F0E4FAB0FA80F0400908BD12
:102440000020FCE7280200203019002038B50B4698
:1024500015460649064A09681268044600F0AAFEB5
:1024600029462046BDE8384000F0AEBE487D010058
:102470002018002038B50B4615460649064A09685B
:102480001268044600F096FE29462046BDE8384012
:1024900000F09ABE4C7D01002018002008B51448B9
:1024A00000F09CFE134800F099FE134800F096FEE1
:1024B000124B1B78012B04D0022B0ED0B3B1FEF7C8
:1024C0008FFE4FF47A7100200CF0FCFC0C490246A0
:1024D0000748BDE80840FFF7CDBF4FF47A710020F0
:1024E0000CF0F0FC074902460348F2E708BD00BFC4
:1024F0005C180020241800204018002070170020CD
:1025000018020020200200204269013201D010F0A0
:10251000D1BB83685B6818471FB5064A0023CDE925
:10252000022001A9044A0548019309F0A7FD05B05E
:102530005DF804FB3C1B00203002002084170020C3
:1025400073B5084E084D0024CDE9004400234FF434
:1025500080723146284609F05FFD0028F4DA02B0A7
:1025600070BD00BF3C1A00208417002038B50A4B0C
:102570000A4D18680A4CFFF7C7FF2B68094A034445
:102580002046136000F02AFE2A6807492046BDE86D
:102590003840FFF75BBF00BF487D01008017002077
:1025A000241800207C1700200002002010B480B105
:1025B00079B1094AD2F8803083420AD9074B1C68A6
:1025C000A14206D25DF8044BC2F880001960FFF703
:1025D000CDBF5DF8044B70477818002080170020AD
:1025E00008B5084B1868FFF78FFF074A12680A23DF
:1025F000B0FBF3F3D01AB0F5803F28BF981A80B231
:1026000008BD00BF4C7D010078170020002310B5E5
:1026100008220370837002234270C3700446FFF7E0
:10262000DFFF40BAA080062010BD00002DE9F74F63
:102630005D4D074628700CF021FC5C4A5C4B20F095
:102640007F401060020C6A70E870020A1868AA7075
:10265000FFF75AFF0A23B0FBF3F0564B56491860B8
:10266000564B1C7801236B71224663BA002605F194
:102670000800EB802E7111F0EDFD40F64203FB40A7
:1026800013F0010304F108041BD14D492B5591F8B7
:10269000856028190223437073BA438032460430A0
:1026A00011F0D8FD043634442B19002206212A5596
:1026B00059709A7002211A715222D9705A710634D7
:1026C00011E00B2FF0D12B1906222E555A70DA701B
:1026D00052225A712022DA7153229E701E719E710D
:1026E0001E725A720A34374A11682B19C4F5807069
:1026F000B1B1002203262A5509BA5E700F284FF0A7
:102700000C069A70DE7059601A725A729A72DA72F6
:102710001A735A739A73DA7301D8FEF761FD1021A8
:102720000C44DFF8A4A00021C4F5807B0F46DAF842
:10273000008004EB070929B1BB45EED3484603B03E
:10274000BDE8F08FB8F1000FF6D09AF8143005EB21
:1027500009063BB31D2206F11000019111F03CF96E
:102760001A230199737419233174B174F3749AF8AC
:102770001430337729220023192105F8093098FAFB
:1027800088F8717051BA04327180C6F804803372CF
:102790007372B372F37233737373B373F373174457
:1027A0000121C4E70C22E6E73C1B0020741700203F
:1027B0004C7D0100781700203019002028020020ED
:1027C00078180020181900200019002038B500B32F
:1027D000F9B1104DD5F880300BB1834219D30E4CAE
:1027E00023680BB1994214D8C5F8800001302160EC
:1027F00008D00A4800F0F2FCD5F8802008490748C4
:10280000FFF724FE2368013303D0BDE83840FFF70B
:10281000ADBE38BD78180020801700205C1800205D
:102820000802002003292DE9F8430F46164603D875
:102830004FF0FF30BDE8F883837842781B0243EA0B
:102840000243C2781343354A12689342F0D1002202
:102850000439043014461546904679BBB8F1000F90
:10286000E6D0002DE4D012B19388002BE0D1404691
:10287000FFF7D6FD0028DBD004B12479DFF8A8806B
:1028800098F885301BB198F88430A34214D2244BB9
:1028900024493A46184611F0DDFC06B130606A88DA
:1028A00052BAD2B2802A88F88520C1D81E48291D84
:1028B00011F0D0FC88F884402046BBE7B942B7D875
:1028C00003881FFA83FE5BBA1FFA83FC4388BEF5B8
:1028D000E06F1FFA83F91AD0BCF1070F0DD8BEF5CF
:1028E000807F19D0BEF5007F08BF05465BBA9BB25A
:1028F0000439C91AFFF78EFDAFE7BEF5506FF5D169
:102900005ABA92B20432052A92D90246EEE7B9F1D8
:10291000000F8DD00446E9E78046E7E774170020F2
:102920003C1900203C1A0020781800202DE9F04FB7
:10293000C31E87B00746082B00F2EB80DFE813F0D8
:102940001402E90009001600E900E900E900E900C5
:102950002A00AF4B1D68AF4B1868FFF7D5FD2D1A45
:102960004FF000084FF4167B0A2403E2AA490A7DBF
:1029700031F8040B00F01AFEA8490546802231F810
:10298000040C00F013FE854238BF0546002DE7D148
:10299000A3495BE0A34B1C88FFF71EFD4FF47A753B
:1029A0006C434FF0000860434FF0530BB0FBF5F061
:1029B000454604443846FFF739FE9B4BC31806468C
:1029C00018460393FFF722FE33180493FFF7B8FD70
:1029D0000498FFF7A1FD0028FADD64236B43DFF8BC
:1029E0004C9205934FF0000A0023CDE900334FF4D9
:1029F0007A738E498E4863434FF4807209F00CFB62
:102A0000061E03DD99F80030072B17D075B9204654
:102A10005946FFF7E8FC0446B8F1000F1DD10398B2
:102A2000FFF7F4FD0498FFF777FDDDE7FFF7D8FD2A
:102A3000059B9842EBD9002E40F3928199F8003023
:102A4000072B40F08D81032E0FDC7A497A4B1868F2
:102A500007B0BDE8F04F00F057BB0AF1010A5FFA7A
:102A60008AFABAF1090FDAD9E5E799F8023099F84C
:102A700001201B0243EA024399F8032013436F4AE3
:102A800012689342E1D10024A6F104086C48424642
:102A9000A1462546A2462146002A3DD10029D4D090
:102AA000BAF1000FD1D00846FFF7BAFC0028CCD00D
:102AB000644B1B78022B0ED0BAF80220624952BA3E
:102AC00091F8853092B29A42BFD10AF1040011F018
:102AD00097FF0028B9D1B9F1000F04D0D9F804301C
:102AE000504A1BBA13600B2F0CD1002C3DD06268EA
:102AF00012BAB2F5167F38BF4FF4167253495448D4
:102B0000FFF7A4FC9DBB4E4CDFF85091B8F1000FCD
:102B100031D107B0BDE8F08F964296D303881FFAF3
:102B200083FCBCF5506F5BBA9BB218D00D2B0ED84E
:102B3000BCF5807F15D0BCF5007F08BF8246438876
:102B40005BBA9BB2043AD21AFFF764FCA4E7BCF567
:102B5000005F08D0BCF5A64F08BF8146EFE70546E9
:102B6000EDE70146EBE70446E9E73A4AC6E7AB88FA
:102B7000002BC8D069E72388B3F5407F00F0EC80D4
:102B8000B3F5C85F00F0918063885BBA9BB22046C2
:102B9000A8F10408A8EB0308FFF73CFC0446B5E7DE
:102BA00063681BBA9342EFD1A6F10C03049D039313
:102BB0001E46D346002E53D1A068E16800BA09BA78
:102BC000FFF704FE4FF0010ABBF1000F18D09BF88D
:102BD0000C202148DBF80860DBF804503A750BF153
:102BE0000D0187F815A00AF03BF99BF80C303BB1BA
:102BF0002DBA00953A7D1849388833BA00F0ACFCFC
:102C000066883A6876BAB6B2BAF1000FC8D0BBE7A8
:102C10007C170020487D0100001900201C190020AD
:102C2000180200202C0200203C1B00203C1A00202F
:102C300084170020100200202018002074170020A4
:102C4000401A002070170020781800202002002071
:102C5000401800208051010004190020181900209C
:102C6000039BB342FFF4F1AE2988B1F5D05F05D1E3
:102C7000797D11B1BBF1000F0AD1AB4669882846B6
:102C8000FFF7C8FB49BA89B2321F561A054691E7C9
:102C9000287B397D8842F1D13B4905F10D000AF0CE
:102CA000C0F8397D8142E8D9E8E704F11003374FD5
:102CB00004934FF0000AA3E763681BBA8B427FF4CA
:102CC00063AF0C3A99F814A0304611463D4661BBFB
:102CD000A068E16800BA09BAFFF778FD0127E5B1FD
:102CE000AB69D5F814C0DFF8A8E089F814702A1D84
:102CF0001BBA9CFA8CFC143510685168774603C7E0
:102D00000832AA42BE46F7D1CDF800C02049B9F832
:102D10000000802200F020FC01276288D9F8001012
:102D200052BA92B2002FC7D02EE78A42FFF48DAE7E
:102D30000388B3F5A06F05D1BAF1000F0AD0002DBA
:102D400008BF054643885BBA9BB20439C91AFFF72E
:102D500061FBBCE70546F5E7002704F11006DCE758
:102D6000062F7FF4D6AE13E600254FF00A084FF089
:102D70001E0B0124FFF730FB4FF47A767443604357
:102D8000B0FBF6F0044415E60419002000190020F9
:102D90001C1900200620FFF7C9BD0520FFF7C6BD9E
:102DA0000320FFF7C3BD0B20FFF7C0BD2DE9F04F97
:102DB00085B000250395FFF70FFB80EAE074A4EBD4
:102DC000E0740120FFF732FC764B00EB0309064666
:102DD0004846FFF71BFC0644FFF7B2FB3046FFF7FF
:102DE0009BFB4FF47A78A84208FB04F4B4FBF8F498
:102DF00044445FDCFEF7F4F9022B35D1FFF7F0FB1A
:102E00000A2303FB104403AA67485946FFF70AFD4B
:102E1000039B002B18BF5D46FF2802D0634B9C42EA
:102E200033D9039B13B9CDF80CA05D46002D40F3B8
:102E3000B580039C002229462046FFF7F3FC0028BA
:102E40003CDAFFF7C9FA80EAE0724FF47A73A2EB3A
:102E5000E072574957485A43B2FBF3F21A4405B09F
:102E6000BDE8F04FFFF706BB039F002FD9D14FF409
:102E700061612046FFF7B7FA04464846FFF7C6FBF4
:102E80003046FFF749FB0028B4DD0023CDE90033CD
:102E90004549494808FB04F34FF4807209F0BCF837
:102EA000B0F1000BE0DD9AF80030002FA4D1022B26
:102EB000DAD1B6E7DFF8F0A00127E6E73F4B40495B
:102EC000186800F021F9043422886388B2F5C85FDD
:102ED0005BBA9BB211D0B2F5A44F5CD0B2F5407F83
:102EE00032D063885BBA9BB22046043DED1AFFF7EF
:102EF00091FA0446002DE7D150E004330F2B4DD951
:102F0000304E002304F110076288316852BA92B241
:102F1000002BE6D163681BBA8B42E2D10C3A3846EB
:102F2000114639B9A068E16800BA09BAFFF73EFB5B
:102F30000123E9E78A4231D343885BBA9BB2043963
:102F4000C91AFFF767FAECE704330F2B26D91E4E98
:102F5000002304F110076288316852BA92B2002B44
:102F6000BFD163681BBA8B42BBD10C3A38461146BD
:102F700039B9A068E16800BA09BAFFF717FB012365
:102F8000E9E78A420AD343885BBA9BB20439C91A7B
:102F9000FFF740FAECE70433072BA2D805B0BDE8F1
:102FA000F08F00BF3C1B00203C1A002080EE360052
:102FB000180200205C180020841700202018002030
:102FC000100200200019002018190020034B1A7865
:102FD000824202D01870FFF761BA70477017002064
:102FE000014B1878704700BF7017002010B50C4CCB
:102FF0000C49A08A00F05EFA0B4BC0B218700B4B64
:103000001B680BB9FEF7ECF848B1002321460848CD
:103010001A4608F00FFFBDE81040FFF73FBA10BD99
:10302000480200203019002028020020201800202B
:1030300084170020802908B5024606D9FEF7D0F88B
:103040001A8019225A80197508BD034B1868002888
:10305000F6D06FF00B00F7E70019002010B504461A
:103060000120FFF7B3FF054B186818B903221C8035
:103070005A8010BD6FF00B00FBE700BF181900204D
:1030800038B5044688B100F087FAA0B12046BDE803
:103090003840FFF7E3BF06F00EFB051E05DB00F02E
:1030A0007BFA10B12846FFF7D9FF20460AF07CFCD6
:1030B00004460028EFD138BD38B5436805460C46B4
:1030C0000BB9FEF78DF80846FFF7DAFF034B1D60DA
:1030D000034B9C82034B9C8238BD00BF201800200C
:1030E00048020020300200200AF076B90AF08AB9BE
:1030F0000346006838B10268904219BF1368036044
:10310000002119601046704708B500B109B9FEF7F3
:1031100067F84B68002BFAD0EFF3108272B60B6899
:1031200033B903686BB11B680B60036819600160F9
:10313000406882F3108830B1BDE808400121FEF7F5
:10314000D1BC0960F3E708BD10B5EFF3108472B687
:10315000FFF7CEFF84F3108808B10023036010BD91
:103160002DE9F0410D46044600B109B9FEF738F8E3
:10317000EFF3108872B6002726467368002BF5D04F
:103180003046FFF7B5FF50B90137BD4206F10806DA
:10319000F3D188F310880120FEF796FCE8E788F366
:1031A000108800220260BDE8F081D0E90501FFF738
:1031B000ABBF000001600349C0E90523C0E903106B
:1031C000704700BFAB3100000A4619B9D0E90501CC
:1031D000FFF79ABF011D00680FF0C2BD01460068ED
:1031E00010B104310FF0A3BD7047000038B58569F8
:1031F000044685B10A4B1868436901330CD00FF0BF
:1032000059FD23696A68C11A8A4226BF9B181B1A96
:1032100000236B60206138BD83685B689847F0E7E6
:103220004C7D01008369084A10B5044610682BB133
:103230005A6821460FF094FD206110BD2146BDE87B
:1032400010400FF074BD00BF4C7D01008369002267
:1032500010B504465A60A06930B1436823B90368C9
:10326000A36163699847F6E72046BDE81040FFF781
:10327000D9BF000070B505460C46EFF3108672B654
:10328000FFF7B4FF05F118000368BBB923600460C1
:10329000AB69A34206D10F4B6268186829460FF04C
:1032A0005FFD286186F310880B4B1B682BB10B4B1D
:1032B0004FF080525A60BFF36F8F70BD61685A68DB
:1032C000914203D3891A61601846DDE7521A2360E0
:1032D0005A60DCE74C7D0100B816002000ED00E0EC
:1032E00070B504460D46EFF3108672B6FFF77EFF09
:1032F000A36904F118022BB92046FFF793FF86F368
:10330000108870BD9D4202D01A461B68F3E72B68F7
:103310001360002BF0D05A6869680A445A60EBE7E2
:10332000034B4161C0E9023000238361704700BF55
:103330004D32000058B1037843B1013810F8013F15
:103340000BB901207047303B092BF7D9002070479B
:1033500038B1054B0A0901F00F019A5C5B5C027001
:1033600043700220704700BF84780100F8B50D4615
:103370005700064610B18C18A54201D13846F8BD59
:10338000304615F8011BFFF7E3FF0644F4E70000A1
:103390000E4A914230B5034616D80A22012014463F
:1033A0008A420ED963B103440A25B1FBF5F405FB4B
:1033B0001412303203F8012D0A46092A2146F4D8A6
:1033C00030BD62430130EBE70A20EBE7FFC99A3BCF
:1033D000FFF7DEBF88B1E9B1002340EA0102D2075E
:1033E0000DD5C2070FD5CA070FD5814222BF0A46A5
:1033F00001461046421A0AD19940084670474008D3
:1034000049080133E9E74008EBE74A080146084666
:103410001146E8E70146F0E72DE9F84306460D4678
:1034200014460AB9FDF7DCFE11462846FFF7D2FF25
:10343000A042F7D8A84239D8B5FBF0F1B4FBF0F2BE
:103440000025B1FA81F44FF0004EC4F120002EFAAD
:1034500004FEC4F15F0C2B462C462F46DB1847EBCD
:10346000070811EA0E0F18BF43F00103934278F1E9
:10347000000947464FEA44044FEA5E0E0FD39B1AF9
:1034800068F1000744F00104002C0BDA3B4300D044
:103490000134C0F1200333713460BDE8F883002C9F
:1034A000F2D1013801356545D8D1EFE70020044657
:1034B000EFE7000073B50E46002306F8043B032334
:1034C0000D464B7028B905F0ACF8044628B9FDF755
:1034D00087FE00B205F0B4F8F7E708234FF4017156
:1034E000B0F9D6010022CDE900313346032104F0C2
:1034F0000BFD031E21DC94F8D531033B082B14D8B7
:10350000DFE803F005130513131313210500082347
:103510004FF40172B4F9D6010221CDE900323346ED
:10352000002204F0F1FC031E11DCB4F9D6110948A5
:1035300011F0A4FA002002B070BD4FF4D852D8B2F6
:103540006A800430F7E74FF4A0520023F7E74FF406
:103550008072F4E7875B01002DE9F34100B2DDF8EA
:1035600020800E4614461F4605F06AF8CDF800800C
:103570003B46E2B23146054605F05CFD002808DB1B
:10358000802C06D00121284602B0BDE8F04103F0AE
:103590003FBA02B0BDE8F08108B500B205F050F8BE
:1035A00090F81101C0F3400008BD00002DE9F04380
:1035B00089B000230093194B06461868436901330C
:1035C0000F4690460FD00FF075FB054600244FF4D0
:1035D0007A7901AA6946304603F01EFE38B92046C2
:1035E00009B0BDE8F08383685B689847EDE79DF814
:1035F00014304345EDD1069B5B1BB3FBF9F3A342AB
:10360000E7D9394601A809F00CFC9DF81430834233
:103610009EBF069C641BB4FBF9F4DAE74C7D010005
:1036200010B50024204604F0FCFF044640B104F02D
:10363000EDFF0028F6D1B4F9D611024811F01EFAB8
:10364000204610BDD75B010037B5FFF7E9FF28B969
:103650001E4810F031F8002003B030BD1C4BB0F80C
:10366000D6111B6868460024CDE90043FFF724FD0E
:10367000FFF7D6FF054688B9144810F01DF8012061
:10368000FFF7A4FCFFF7B2FC01216846FFF768FDD5
:1036900003460028DFD05B689847F5E790F81131C2
:1036A00043F0020380F81131204604F0BAFF0446CB
:1036B0000028E4D004F0AAFF0028F5D0A542F3D0FA
:1036C000B4F9D6014021FFF7B5FCEDE7035C01003A
:1036D000BC1600201FB5074B0293074A0092002337
:1036E000019305224FF480610448FEF789FA05B082
:1036F0005DF804FB285C0100493600003C1C0020FA
:103700004269013201D00FF0D5BA83685B6818476F
:103710002DE9F041DDF81880154600220E461F46BF
:10372000014608F10803104600F07AF9044650B14A
:10373000406876BA6DBA8680C58027B14246394660
:10374000083010F087FD2046BDE8F08173B50646CD
:103750000C46002A3ED0072B3CD99188D088083BE4
:1037600040BA49BA009389B202F1080382B28120BB
:10377000FFF7CEFF054668B3237EFF2B04F1080256
:1037800014BF04F11801002100F0DDFC044610B95B
:103790000146284609E000231A461946184605F056
:1037A000D7FD054630B90146204602B0BDE870405D
:1037B00006F032B943680EB1B6F9D6615E800649AB
:1037C0002C602B4640F20222022004F0C9FB014685
:1037D0000028DED002B070BD0000FFFFF7B5099DE4
:1037E0000C4611461A464FF6FB739D4207464AD8CF
:1037F000009500238020FFF78BFF002846D022464B
:103800000021466800F09FFC044630B921480FF0C3
:1038100053FF0025284603B0F0BD43689DF82020E3
:10382000DA7167B100231A461946184605F090FD73
:1038300030B34368B7F8D6215A8004600446164B6B
:103840001868FFF75DFF032D89BFB0600836043D9F
:103850000C3600239D42DAB20FD11049234640F2C4
:103860000222022004F07CFB0028D2D16FF0080570
:103870000021204606F0D0F8CCE7F2540133E9E706
:103880006FF00B05F4E76FF01505C3E76FF00B055C
:10389000C0E700BF365C0100507D01000000FFFF63
:1038A0002DE9F0471F46224B0546186816460C4680
:1038B000FFF726FF02218146284606F0FDFA032184
:1038C0008246284606F0F8FA8046BAF1000F2BD05F
:1038D00050B3DAF80400083002F031FAD8F80410D6
:1038E000032C01F1080C1CD98B68043CA9EB0302E2
:1038F0000C310B190C469C4202D14FF0FF310AE00B
:103900000134601A013814F801ECC0B28645F2D0D7
:10391000A4EB0C0101393B462846B446BDE8F0470C
:10392000604761460022E4E76FF01500BDE8F087CC
:10393000507D0100F8B5048906460F461546002063
:103940000DB1B54218D132897168002309F07FF9B1
:1039500004F13A030344B3F5803F24BF013080B241
:10396000796820443A3000232022083180B209F0DF
:103970006EF9C04380B2F8BD23462A89696809F010
:1039800066F9AB682D6823449CB2D9E72DE9F8436A
:103990000E4681460321304606F08EFA044608B9E9
:1039A000FDF71EFC022106F087FA07460028F7D033
:1039B000A368032B05D830460021BDE8F84306F084
:1039C0002BB8014632462046D4F80480FFF7B2FFF8
:1039D0000028F0D198F80050892D0FD8842D11D8E7
:1039E000802D16D098F80010334640F201220320B3
:1039F00004F0B6FA0028DED0BDE8F8836335EDB2F6
:103A0000012DEFD8A36879684246484602F084FB4E
:103A1000E8E72389796842464846FFF797FEE1E7E1
:103A200038B50D46144600211A46032306F04EF918
:103A300028B1436800221D705C709A70DA7038BD3E
:103A400010B5044660B190F91030032B0BD1026819
:103A5000FFF770FF50B1636840BA5880002010BD76
:103A60006FF00D00FBE76FF04C00F8E76FF001001E
:103A7000F5E7002105F0D0BF08B50449102210F089
:103A8000BFFFB0FA80F0400908BD00BF3E790100D9
:103A900010B50A490822044610F0B2FF48B1237855
:103AA000FF2B08D1607800F00F00831E5842584168
:103AB00010BD0120FCE70020FAE700BF2E790100CD
:103AC00070B51E46CBB2002115460246084605F0E9
:103AD0003FFC044620B92846FFF7CBFF204670BDC7
:103AE00043681E710560F9E738B50B680C4605465A
:103AF00008B9FDF775FB4A68B0F8D611518000226D
:103B00004BB9B5F81231934209D220467A21BDE86B
:103B1000384005F081BF99681B680A44F0E72846E1
:103B200004F074FD60B10B49234640F202220120EB
:103B300004F016FA68B92046BDE83840FFF799BF8F
:103B4000B5F9D60140F20222214604F0FEF9002820
:103B5000F1DD38BD0000FFFF2DE9F8430E46D1E945
:103B6000001405460A4600232ABB5BBAA380A3794A
:103B7000FF2B02D119BB3B23A371E37913B94DBBD2
:103B80004023E37104F108073E491022384610F043
:103B900037FF04F11809804678BB4846FFF76CFFF1
:103BA0000246D0B11022414638460FF015FF0123DE
:103BB000E37534464FE0906812680344D4E70B7C09
:103BC000023BDBB2022BD6D82F4AD35CA371FF2B6A
:103BD000D3D1D0E795F8D431D3E74946284604F04D
:103BE000B5FE03460028E4D000F1100253F8041B90
:103BF00047F8041B9342F9D1DBE7284604F02BFD7C
:103C00004846FFF739FF98B10024284604F02AFD02
:103C1000002CCED00321304606F04EF928B143687F
:103C20001B7803F0FD03852BC3D06FF07C0022E0EE
:103C30003946284604F076FE0028E5DB2844047D5A
:103C400004F01F04103C18BF0124DEE706F05AF808
:103C500098B12060044694F91030022B02D12068FC
:103C60000028F3D13146204605F0C5FE002807DACA
:103C7000831C08BF0020BDE8F8836FF00B00FAE753
:103C80000020F8E74E7901009478010010B50C4649
:103C90000AB9012010BDFFF75FFF0028F9DA2046BE
:103CA000FFF7E7FE0020F5E72DE9F04390F910302B
:103CB000013389B00646884624D144680CB9FDF723
:103CC0008FFAB4F9020004F0BBFC054630462779B0
:103CD00006F018F807F03F07014628B9304609B04A
:103CE000BDE8F043FFF7C5BE05F0C0FE064696F9F5
:103CF0001030022B09D01621304609B0BDE8F04340
:103D000005F08ABE00273D46F1E77068564910224B
:103D1000183010F075FE0028EDD0304605F0F2FFA7
:103D200004460028DAD04668337EFF2B4BD125B9F4
:103D300004F079FCB0B92046D1E701464246284656
:103D4000FFF7A4FFC8B10021084647F04003224610
:103D5000FFF7B6FE014680B1284609B0BDE8F04342
:103D6000FFF7C2BE411E204605F026FF47F0400780
:103D7000284604F056FC054610B909B0BDE8F083AA
:103D8000B8F1000F11D0204605F0BCFF0646002810
:103D9000D1D001462846FFF7DFFE002806DAB442FC
:103DA000C9D03046FFF765FEC5E726460021084624
:103DB0003B463246FFF784FE01460028D8D028460D
:103DC000FFF792FED4E71836304604F098FE85429D
:103DD000814606D03046FFF75BFE002818BF4FF043
:103DE00000093046FFF748FE10B9B9F1000F15D0B1
:103DF000424621464846FFF749FF0028BDD02046ED
:103E000005F04CFE002896D11849234640F20122C5
:103E1000022004F0A5F80028AFD18CE701AB2246C0
:103E20002946304603F038F80028A6DBBDF81C0010
:103E3000C0F3041004F004FC054600283FF43FAF33
:103E400042462146FFF722FF002896D09DF81E101B
:103E50003B46224605A8FFF733FE014600288CD0DA
:103E60002846FFF741FE88E74E7901000000FFFF7A
:103E70002DE98048102289B00DEB020000210FF0DF
:103E8000ABFD944B0593944B94481B88ADF81C30C4
:103E90000821FDF793FC04A9022005F015FDDFF8C9
:103EA00040B240F20523ADF80A3040F2022A6846DB
:103EB000FDF777FCBDF80210B1F5017F0BD8514535
:103EC00000F2F78040F20123994219D05145EED11A
:103ED00001980121E4E0A1F59F43403B9BB2152BE3
:103EE000E5D801229A4012EA0B0240F0EA80152B35
:103EF00000F0EB80142BDAD1019802F059F8D6E7E4
:103F0000019D0DB9FDF76CF94FF0FF31284605F022
:103F1000D3FF0646A8B14368002BF3D0B3F90200E3
:103F200004F08EFB80466B683BB1AA68272A04D94F
:103F30001B7803F0F003602B05D02846FFF799FDAE
:103F4000B5E78046EFE7284605F0DCFE044600288A
:103F5000F3D00222282105F0F7FE0023237408B9CC
:103F60002046EBE74768FB790BB9742170E0B9880C
:103F7000BD798BB249BA89B20BB93B2DF0D18442DD
:103F8000A36857D09942204654D205F045FF07F167
:103F900018094846FFF770FD78B94846FFF778FDE5
:103FA00010B1B8F1000F57D1484604F0A8FD804683
:103FB000B0FA80F04009002852D1292D73D03A2D53
:103FC00073D0A5F11102534253419B00237429463B
:103FD000022005F0F8FC002801DC3A2D67D1012110
:103FE000204605F0E9FD01263A4994F910002346E0
:103FF00040F2012203F0B4FF10B92046FFF739FD6B
:1040000086B13A2D03D10121204605F0D5FD234686
:1040100040F201222946022003F0A2FF10B92046F7
:10402000FFF727FD3A2D7FF442AF21464046FFF7C8
:10403000ADFC3CE700238268134490F91020022A6B
:1040400002D000680028F6D1283B8B429FD216216F
:10405000204605F0E1FC2AE7484604F050FDA7E7BA
:1040600007F10800FFF714FD00287FF479AF4846F8
:10407000FFF70EFD00287FF473AFFB79013BDBB245
:10408000FB71002B3FF471AF1EB13146204605F0A5
:10409000EDFC204605F025FD00283FF408AF002187
:1040A000FFF702FE03E7022390E703238EE70026D3
:1040B0009AE76FF0850302A968460393FDF748FB72
:1040C000F5E6019802F01EFDF1E60198114601F0B7
:1040D000B1FFECE60000FFFF481700204020002061
:1040E000EFFB06001FB50A4CB4F900305BB9094A72
:1040F0000948CDE90132094A00924FF47071042257
:10410000FDF77EFD2080B4F9000004B010BD00BFB3
:104110003C200020505C010080200020713E000007
:1041200008B5022105F0C8FE60B143680BB9FDF780
:1041300057F88268272AFAD91A7802F0F002602A22
:10414000F5D1184608BDF8B50C46174602232822BB
:10415000002105F0BBFD064608B3456805F10800DF
:10416000FCB1214604F1100351F8042B40F8042B54
:104170009942F9D105F11800C7B1394607F110038A
:1041800051F8042B40F8042B9942F9D16022002306
:104190002A70FF226B70AB70EB70AA71EB71304626
:1041A000F8BD102221460FF017FCE3E71022394634
:1041B0000FF012FC012385F82730E7E7F8B5044635
:1041C00015460E4609B90020F8BDD1F81471FA045D
:1041D000F9D51949082210F013FC38B12378FF2BC8
:1041E000F1D1637803F00F03022BECD1FB0701D46C
:1041F000FCF7F6FF96F8D50105F1100204F108016D
:1042000008F0AEFF10F0FF00DDD0A8762B4604F1D9
:10421000100254F8041B43F8041B9442F9D1B6F879
:10422000D6311B0103F4F87343F4806343F00603B3
:104230002B830120C8E700BF2E7901002DE9F84348
:10424000064604F05CFC044600285FD004F003FA44
:10425000B4F9D611002001F0C9F9054670B1006823
:1042600000F0FCFD50B12B68B4F9D611B3F868200A
:10427000C2F3041291420CD0FCF7B2FF002384F881
:104280000F31204602F0F4FB2046BDE8F84304F06D
:10429000E9B9083318463246214600F00FFB314693
:1042A000204604F03FFB0028E6DB21180B7D03F0DD
:1042B0001F02102A27D003F00702013A012AE3D88F
:1042C0000133D4F808810B75050105F1CC06104BBC
:1042D0001048B3F9009026443146FFF701F805F184
:1042E000170760190023C0E93338274444F6CF7319
:1042F000A0F8D630C0F8D870A0F8D4903146054860
:10430000FEF7B8FFC0E74EF66028DDE7BDE8F883AA
:104310003C200020402400202DE9F3470D46DDE934
:104320000AE81F46044608B9FCF75AFFD0F81461A2
:1043300016F4805F03D1042002B0BDE8F08793F843
:104340000190B9F1020FF6D192F800C0BCF1880FCC
:104350007BD1F607EFD590F830216B4600F59471CC
:1043600003F05AFF0828E6D1DDE90002B968FB68CE
:104370009A4208BF8842DED1BB78012B41D0022B84
:1043800045D0CBBB05F118012046FE8804F0CAFADF
:1043900000281FFA86F8CEDBB8F5807F2ED076BADB
:1043A000B6B24EF660235E43A6F56A46603E22181A
:1043B0000501137D2C4823F01F0343F0100305F182
:1043C000CC081375A044294B4146B3F900A005F170
:1043D0001709FEF785FF60190023C0E93336A144B1
:1043E00044F6CF73A0F8D630C0F8D890A0F8D4A087
:1043F00041461D48FEF73EFFB8789DE747F230562C
:10440000D5E705F11801204604F0FAFCF4E7B4F909
:10441000D61105F1080001F0E9F80646002883D01E
:1044200001F0ACF8002001F0CBF828B984F80F01B6
:10443000204602F01DFBDFE73368002B3FF474AF2A
:1044400005F11800FFF7FAFED6E7B4077FF573AF62
:10445000BCF1870F7FF46FAFCDE90AE802B0BDE889
:10446000F04700F089B800BF402400203C20002025
:10447000F8B54378032B054602D000242046F8BD4A
:10448000083001F0E9FA04460028F6D06B88AA88C3
:10449000ED885BBA52BA9BB243EA0243AAB23AB37E
:1044A0006DBAADB24EF66022554322699A4209D3E5
:1044B0002361134B1868436901331CD00EF0FAFBDB
:1044C000284460610F4B1048B3F9007004F11806DE
:1044D0003146FEF705FF0023C4E9063544F6CB73E9
:1044E00009486384646227843146FEF7C3FEC5E74A
:1044F00042F21075D6E783685B689847E0E700BF33
:104500004C7D01003C20002040240020F7B51546DA
:104510008A784878412A34BF02230323984227D15E
:10452000CC88CB78A7B264BA03F00F06A4B2C3F369
:104530000013009308312346304605F043FD0DB9C2
:10454000FCF74EFEF108F64306F00706012305F1DD
:104550002902B340505CDBB247B920EA030353544D
:104560004EF6602303FB04F003B0F0BD0343F6E70F
:104570004FF0FF30F8E700002DE9F04701F108099E
:1045800006460F469046474910224846DDE908A4F2
:104590001D4610F035FA00287FD0BAF1000F7CD00C
:1045A0005CB194F86A30DA0707D50822A91804F13B
:1045B000180010F025FA002869D1EB88002B61D093
:1045C000534642463946304600F0A2FAB6F9D611B3
:1045D000484600F04DFE0446002860D000F1180760
:1045E00005F1080808224146384610F009FA38B1AA
:1045F000B4F8683003F4C06313B10120BDE8F0875C
:10460000AB68A361D8F804307B60ED88264B27485F
:10461000B3F9008004F158073946FEF761FE6DBA20
:104620000023A365ADB24EF660235D4344F6C97323
:10463000A4F862301D48E5656466A4F860803946D8
:10464000FEF718FEB4F868206FF0410302F007028D
:104650001341DB070CD50EB9FCF7C2FD134804F17A
:104660002801FEF73DFE03222146304600F034FAD1
:10467000B4F8683023F4C06343F48063A4F868306E
:104680000020BBE74CB1204600F050FEF8E7B4F83C
:10469000683003F4C063002BAFD10420AEE70220E2
:1046A000ACE700BF4E7901003C20002040240020F0
:1046B00073B5069E1C460BB9FCF792FD0025CDE9AB
:1046C0000065FFF729FEC31EDBB2012B0AD9E18882
:1046D00049BA2B4604F1080289B202B0BDE8704025
:1046E00007F027BA284602B070BD4269013201D0F6
:1046F0000EF0E0BA83685B681847000070B50446A6
:1047000004F0FDF9064608B9FCF76AFD00F060FD0B
:10471000204601F0A1F9044620B900F05FFD6FF0DA
:104720000B0070BD1A4B1868FFF7DFFF194B0344ED
:1047300063610025284601F08BF80546A8B92934A5
:104740000126E8B205F01CFC40B1EA08EB43A15C8D
:1047500003F0070306FA03F30B43A3540135102DAE
:10476000EFD100F03BFD0020DBE795F834305B072C
:10477000E0D52B68B6F9D621B3F86830C3F304133B
:104780009A42D7D12946204601F0BEF9D2E700BFB0
:104790004C7D01000046C32310B5044600F018FD0F
:1047A000204601F077F9BDE8104000F017BD000089
:1047B000F8B50468124F06460D4600F009FD204684
:1047C00001F0E0F9044698B11022394610F018F9CA
:1047D0000028F4D023462A4604F1100153F8040BB4
:1047E00042F8040B8B42F9D123692B6163696B6139
:1047F00000F0F4FC201E346018BF0120F8BD00BF9B
:104800004E79010070B58AB00146282204466846F8
:1048100008F05CFB094B05461868D4E90464FFF70F
:1048200064FF3246241A294605484EF66023B4FB3D
:10483000F3F310F023F90AB070BD00BF4C7D010006
:10484000555C01002DE9F843DFF834801F460B4B1F
:10485000144605460E4640461146B3F90090FEF751
:104860003FFD0023C4E900376681E560A4F80890A5
:1048700021464046BDE8F843FEF7FCBC3C20002042
:104880004024002038B5154604461A4691B190F8E8
:104890006C30934204D00231203010F0B1F858B996
:1048A000B4F86810B5F9D631C1F30411C81A18BFAD
:1048B000012038BD0846FCE70120FAE7F0B50746BD
:1048C00085B015461E460C4609B9FCF789FCB1F9BE
:1048D000D611002000F08AFE4DB3D4F81431DA046A
:1048E00025D520B30068B4F9D621B0F86830C3F3F9
:1048F00004139A421BD13146083008F07CFAB0B15B
:10490000D4F81431DB0710D594F8302102AB04F54C
:104910009471204603F080FC082806D1002302AAE7
:104920000F21184607F005F910B905B0F0BD0020B9
:10493000009033462A462146384603F02DF9F4E725
:1049400070B50446B0F86800C0F304100E4603F0DA
:1049500077FE054608B9FCF743FC03F07CFE16B170
:10496000002384F86B3004F108031846002229461E
:10497000FFF7A4FFD5F8083104F1280244F6C0710E
:104980002046FFF75FFF284603F06CFE94F86B307B
:10499000013384F86B3070BD2DE9F043B0F8683016
:1049A00013F0070585B0044688467AD06A1E012AAE
:1049B00072D8C3F3041003F043FE44F6C1710746F6
:1049C000204601F053F981460FB9FCF709FC38463F
:1049D00003F041FED7F80861B14557D9B8F1000F8F
:1049E00002D0002384F86B30012D28D194F86B306D
:1049F00040F2DC51023B4FF4FA704FFA83F95FFA50
:104A000083F80AF05FFAA0F5FA73B3F57A7F84466B
:104A1000DBD2B8F1110FD8D805FA09F5A5FB065677
:104A2000A5FB000100230CFB06114FF47A720EF077
:104A3000E1FA4EF66023984228BF1846064640F237
:104A4000FF220023CDE900234FF080730293FF2360
:104A50008DF80C30637D8DF80D30E38AADF80E30A3
:104A600000226B46394604F10800FFF727FF334662
:104A700004F1280244F6C1712046FFF7E3FE94F8E2
:104A80006B30122B9CBF013384F86B30384605B075
:104A9000BDE8F04303F0E6BD05B0BDE8F043FFF725
:104AA0004FBF05B0BDE8F08310B50446D0F8EC0068
:104AB00000EB500140080AF005FA04F19802C4F82E
:104AC000F000044B204644F6CE71BDE81040FFF7DD
:104AD000B9BE00BF00DD6D00B1F8683023F00703F8
:104AE000134370B50446A1F868300D46164603F02E
:104AF000B2FD3CB1D4F8983023B1324605F108013B
:104B0000032098472046BDE8704003F0ABBD00008D
:104B10002DE9F84391469846054608B9FCF760FB35
:104B200001F10807B0F9D611384600F0A1FB0446A0
:104B300028B190F86A3013F0010F08BF0024D5F8AF
:104B40001431DA07EAD595F8D501414608F032FB71
:104B5000061E09DB54B9B5F9D6110322384600F018
:104B600027FC0446002842D1BDE8F88394F86C3055
:104B7000B34207D1324608F1020104F120000FF0E0
:104B80003FFF98B1D5F8142141F20203934303D1BA
:104B900099F80030852B09D01E4804F12801FEF752
:104BA0009FFB032221462846FFF796FF94F86A30C0
:104BB000DB07D9D599F80030862B23D1B4F86820CB
:104BC00042F00802A4F86820D5F8141141F202025C
:104BD0008A4301D1852BC7D084F86C60324608F136
:104BE000020104F12000BDE8F8430FF033BB99F84F
:104BF0000030872B02BFB0F8683023F00803A0F81C
:104C00006830D3E7872BDFD0B4F8682022F00802A1
:104C1000D8E700BF4024002038B50446B0F868004B
:104C200000F00703042B12D0062B12D10325C0F38A
:104C3000041003F005FD2A462146FFF74DFF052D20
:104C400007D120460121BDE83840FFF7A5BE052564
:104C5000EDE738BD70B505460C460622FFF73CFF70
:104C6000D5F8043104F12802204644F6C771BDE8A6
:104C70007040FFF7E7BD00002DE9F04705461646F6
:104C80001F460C4609B9FCF7ABFA0028FBD06BB104
:104C9000D0F81431D907F6D590F8D501394608F087
:104CA00089FAB0F1000802DABDE8F0879846B4F856
:104CB000689009F00709B9F1020F0FD096F800A02B
:104CC000BAF1880F02D133799A0607D443462A46AF
:104CD00039462046FFF7D6FD00286ED0002F4FD072
:104CE00084F86C804246B91C04F120000FF0B2FA3F
:104CF0003378882B02D133795B0644D4384804F1E9
:104D00002801FEF7EDFA032221462846FFF7E4FECC
:104D10003378882B0DD13279900602D4B9F1020F85
:104D200007D11106B4F8683032D423F00803A4F890
:104D30006830DFF8B0A0204601F090FF814650BBFC
:104D40003378882BB0D133795A06ADD4B4F86830B3
:104D500003F00703062BA7D143462A4639462046CF
:104D6000FFF790FD00289FD004F128011C48FEF7B2
:104D7000B7FA214628460322BDE8F047FFF7ACBE4C
:104D800084F86C70B4E721462846FFF763FFBFE75D
:104D900043F00803CBE7D9F8043040F20222514631
:104DA000022003F0DDF820B9D9F80400092104F04D
:104DB00033FE0023C9F80430BDE7BAF1880F7FF451
:104DC00073AFB9F1000F3FF46FAF33795B067FF536
:104DD0006BAF21462846BDE8F047FFF73BBF00BF59
:104DE000402400200000FFFF38B505460C46084669
:104DF00002F038F9214628460122BDE83840FFF785
:104E00006BBEB0F8682002F00703022B10B5044611
:104E100004D0052B0AD0012B13D010BD90F86B30B5
:104E2000022B15D9BDE8104000F080BA90F86B3025
:104E3000022B06D9C2F3041003F002FC2146FFF74F
:104E4000D3FFB4F8683013F4C06F01D01B07E4D56A
:104E500020460021BDE81040FFF79EBDB0F8680075
:104E600000F007000138012894BF0020012070479E
:104E700008B5044910220FF0C3FDB0FA80F04009D4
:104E800008BD00BF4E7901002DE9F843089D894611
:104E900014461F46804688B181B1FFF7E9FF0646F8
:104EA000304B9D429ABF4FF47A735D434FF0FF350C
:104EB0000FB12EB10CBB6FF0150412E00126EFE725
:104EC00000F086F94B46802B204628BF80234246BF
:104ED000394600F00DFC044630B96FF00B0400F0C9
:104EE0007DF92046BDE8F88390F8343043F0100394
:104EF00080F834301DBB0024F1E700F069F920464A
:104F0000394600F00BFB04460028E6D0164B18602B
:104F1000002DF0D0154B061D31461548B3F9007031
:104F2000FEF7DEF90023C4E9013544F6CD73E381D1
:104F30002461A78131460E48FEF79CF9DBE70B4B55
:104F400000F1240739460A48B3F90080FEF7C8F992
:104F500044F6D073C4E90965E3852463A4F82C8082
:104F60003946E8E737894100A82D00203C20002081
:104F70004024002070B505460E4600F029F92DB1F9
:104F800026B12846FFF774FF044640B100F050FBFD
:104F900008B100F0F3FABDE8704000F01FB92046F8
:104FA00000F056FC04460028F5D094F83530B342A2
:104FB000F5D12946201D07F034FFB042EFD3074852
:104FC00004F12401FEF78CF994F8343023F0100337
:104FD00084F83430204600F011FCDCE74024002047
:104FE0002DE9F04106460F469846154602B10BB929
:104FF000FCF7F6F8106838B92C68204600F028FC59
:105000000446F0B9286003E000F036FC0028F3D134
:105010002C68204600F0D4FA044670B120680028BD
:10502000F7D02FB1B0F86830C3F304139F42F0D12A
:1050300056BB4146204600F025FB201E18BF01202C
:1050400018E094F83430002BD2D020680028D4D057
:10505000042B02D1E38EDB07CFD52FB1B0F8683037
:10506000C3F304139F42C8D13EB92046414600F025
:1050700011FC01202C60BDE8F0813146083007F0BA
:10508000BAFE0028F1D1B8E73146083007F0B3FE88
:105090000028BED0CDE7000030B590F820308BB0AE
:1050A000044613B1FFF7E4FEF8B194F82110154A55
:1050B000154B164800290CBF114619460FF0DEFCAF
:1050C00004F110052846FFF7D3FE40B929462822EF
:1050D000684607F0FBFE01460D480FF0CFFC618CDF
:1050E0000C480FF0CBFC0BB030BD2146282268469F
:1050F00007F0ECFE94F82020014607480FF0BEFCB4
:10510000DEE700BF2D5E01006D5C01006F5C0100F9
:10511000815C0100895C01007A5C0100CB08C94315
:10512000C25C01F0070101238B401A4214BF012029
:105130000020704730F9081FFCF7AEBA08B50449E3
:1051400010220FF05DFCB0FA80F0400908BD00BFEE
:105150004E790100054A106838B10368984219BFBA
:105160001A6802600021116018467047A42D0020C3
:1051700090F86A1011B970220EF02EBC704770B50D
:10518000044610460E461546FFF7F2FF54B123467B
:1051900005F1080204F1100153F8040B42F8040B66
:1051A0008B42F9D11F2E01D9FCF71AF8B5F86830F7
:1051B00023F4F87343EA0611A5F8681070BD0000E7
:1051C00001490248FEF7ACB83551000040240020E8
:1051D0000148FCF783B800BF5C2400200148FCF7BD
:1051E00081B800BF5C2400202DE9F041154C064633
:1051F0000F4604F5E0680025B4F86830C3F30413E3
:105200009F4211D025B994F86A30002B08BF25467B
:105210007034A045F0D125B12A4639463046FFF713
:10522000AEFF2846BDE8F08104F1080136B9084612
:10523000FFF784FF0028E5D02546EDE7304607F06C
:10524000DAFDF7E7A426002028B17030064B98421B
:1052500003D3002070470548F8E790F86A20002A39
:10526000F8D17030F3E700BFA42D0020A426002061
:105270002DE9F0418846074608B9FBF7B1FF124C0B
:105280000026254694F86A3043B97036B6F5E06FCB
:1052900004F17004F6D10020BDE8F081B4F8683064
:1052A00013F4F87FC3F3041204D0B8F1000F01D057
:1052B0009045EAD1394604F1080007F09CFD00282A
:1052C000E3D0A819E8E700BFA42600202DE9F041AB
:1052D0000446B0F86800134DC0F3041003F0B0F9B1
:1052E000B4F86830D0F8048123F0070343F00603D4
:1052F000A4F8683004F128060B4B31462846B3F970
:105300000070FDF7EDFF0023C4E90A3844F6C773C7
:1053100063866463278631462846BDE8F041FDF781
:10532000A9BF00BF402400203C20002010B590F809
:105330006A3023F0010380F86A30044600F1380136
:105340001948FDF7CDFF184804F12801FDF7C8FF03
:10535000154804F14801FDF7C3FF04F15801124854
:10536000FDF7BEFF204601F07DFE10490A6822B11C
:1053700013689C4206D1FFF7EDFE2046BDE81040C1
:10538000FFF7F6BE13461B681868844202D09A42A3
:10539000F9D1F2E7002BF0D022681A600A68944233
:1053A00008BF0B60E9E700BF40240020A42D0020C7
:1053B0002DE9F8438846074608B9FBF711FF02F0CC
:1053C00007052B1F022BF8D9FFF70EFF00283CD151
:1053D000FFF7C0FE814678B32A4E044694F86A303F
:1053E000012B2CD8B4F8683003F4C0633BBB2046D3
:1053F000FFF79CFF384622464146FFF7C0FEB4F84F
:1054000068302B43A4F86830012384F86A302046C2
:105410003368B3B11B68236033681C60346060B9C3
:10542000FFF798FE81450446D8D133685BB11B680D
:1054300003603368186034600020BDE8F883002002
:10544000E6E72460EAE72060F5E790F86A30DA07DB
:105450000AD4B0F8682022F00702154343F0010394
:10546000A0F8685080F86A300368002BE5D1054B3E
:105470001A682AB1126802601A6810601860DCE7C6
:105480000060FBE7A42D0020F8B50C46054600B1EE
:1054900009B9FBF7A5FE0A4600F1080300F118015F
:1054A00053F8040B42F8040B8B42F9D1B5F868703D
:1054B00019492783082220460FF0A2FA04F11006AA
:1054C00038B12378FF2B1DD1637803F00F03022B33
:1054D00018D1C7F3041003F0B3F80028D9D0D0F8DE
:1054E0001431D9040ED59A070CD4DB0705F110014D
:1054F000CFD590F8D501324607F032FE002801DB07
:10550000A076F8BD95F86C20A27605F12001304612
:10551000BDE8F8400EF09EBE2E790100F8B5164E9B
:10552000346807460D46A4B1B4F86830C3F30413D9
:1055300099420CD104F1080107F05DFC38B194F8F0
:105540006A3043F0080384F86A300B48F8BD002045
:10555000FCE7FFF749FE024630600028F7D02946F5
:105560003846FFF70CFE326892F86A3043F00803C1
:1055700082F86A30E9E700BF90240020036810B584
:1055800004468BB1011D0C48FDF7AAFE206890F877
:105590006A3023F0080380F86A30FFF7E9FD14222F
:1055A000002120460EF018FA044B1A68A24204BFEC
:1055B00000221A6010BD00BF40240020A82D00204A
:1055C00028B11430074A904203D3002070470648A0
:1055D000F8E703681BB193F86A30002BF6D114305A
:1055E000F1E700BFA42400209024002010B520B1D2
:1055F0000E4B1C682CB9002010E00029F8D1FBF7F5
:10560000EFFD29B1B4F86830C3F304139942F2D125
:1056100028B994F86A301B07F1D5044810BD04F18D
:10562000080107F0E8FB0028E5D0F2E7902400200D
:1056300010B5134C2168B9B10B68B3F8683003F0AA
:105640000703013B012B0DD80020FFF7B9FF68B914
:105650000846FFF7B5FF01B110B90020FFF7B0FF12
:1056600020600146084610BD0846EEE70368B3F81F
:10567000683003F00703013B012BF1D8E5E700BFD9
:10568000A82D002038B50C46054610B1036803B1BB
:1056900009B9FBF7A5FD1022002120460EF09CF968
:1056A000124A12680023AA4284F8203009D12B68DC
:1056B000B3F8683003F00703013B012B94BF0023CC
:1056C000012384F821302B6804F1100103F1080252
:1056D000183352F8040B41F8040B9A42F9D12B68A5
:1056E000B3F86830C3F30413638438BDA82D0020D9
:1056F0002DE9F84F05468A461F4690463AB11046B6
:10570000FFF71CFD044610B97B1E7F2B01D9FBF768
:1057100067FDDFF8E4B081469BF83420DBF80060D9
:10572000DAB9002C08BF5C4609F10109B9F1080F8C
:105730000BF1400BF0D174B12368002B46D15146D8
:105740002846FFF751FD0146206000283ED1402247
:1057500020460EF041F900242CE09BF835209742BA
:10576000E2D141460BF1040007F05BFB8742DBD836
:10577000002ECCD0B6F86820C2F304129245D3D1E3
:1057800008363046FFF7DAFCB8B13DB105F110023A
:1057900055F8041B46F8041B9542F9D1164B4FEA05
:1057A00089195C4653F8091091F86A2042F04002CA
:1057B00081F86A202046BDE8F88F002DB4D031462C
:1057C000284607F018FB0028AED0DFE722685146D4
:1057D0002846FFF7D4FC2046FFB250F8042B92F87D
:1057E0006A3043F0400382F86A3041463A4607F097
:1057F00037FB84F83570DDE7A424002010B590F85D
:1058000034300446FBB90068D0B920464022BDE8D8
:10581000104000210EF0E0B84033013A04D09C4221
:10582000FAD019688842F7D1074A9342EDD390F82D
:105830006A3023F0400380F86A30FFF799FCE4E710
:10584000024B0922E9E710BDA4260020A424002071
:1058500028B14030064B984203D3002070470548DA
:10586000F8E790F83420002AF8D14030F3E700BF81
:10587000A4260020A4240020054B984206D303F55B
:10588000007398422CBF0020012070470020704711
:10589000A424002038B50B4610B1026802B109B942
:1058A000FBF79EFC021D00F1140452F8045B41F862
:1058B000045BA242F9D190F8352083F82020002122
:1058C00083F821100268B2F86840C4F304145C84C1
:1058D00090F83400042803F1100004D1BDE83840EA
:1058E00010220EF079B802F10803183253F8041BA5
:1058F00040F8041B9342F9D138BD00002DE9F04770
:105900000F469146064600B10AB9FBF769FC1F4DE8
:105910000024A04605F5007A95F834305BB1314695
:10592000281D07F07EFA804505D295F83530834270
:105930009CBF80462C4640355545EDD134B194F896
:105940003430042B1DD1E38EDB071AD4FFF770FE31
:1059500090B9B4B9204602F064FE044618B96FF05D
:105960007100BDE8F087D4F89830002BF2D03A46A9
:10597000314601209847EDE74946FFF783FE0020B6
:10598000EFE749462046FFF785FFF8E7A42400200B
:1059900010B5044600F114011148FDF7A1FC94F87C
:1059A000343023F0040384F834302046FFF726FF18
:1059B0000C4BE41AB4F5E07F10D8A4110A48214634
:1059C000FFF7ACFB50B1094984F0070491F8283087
:1059D0000122A24023EA020381F8283010BD00BF53
:1059E00040240020A42400208C24002064240020D3
:1059F0002DE9F047044600F114011648FDF770FC4C
:105A00002368B3F86800C0F3041002F019FE0546DD
:105A1000D8B194F8358000F1170600F14709002746
:105A200004F1040A3046514607F0FBF9404528BF0F
:105A3000374606F1100628BF94F835804E45F1D15F
:105A40001FB13946284603F0DBF92046BDE8F04790
:105A5000FFF79EBF4024002038B5044608B9FBF785
:105A6000BFFB0B4907F0C7F978B90948FFF766FB98
:105A700060B12346064C03F11005186859682246A8
:105A800003C20833AB421446F7D1014838BD00BF0A
:105A90006424002070B558B3174907F0ACF948B337
:105AA000164D174E002421463046FFF737FBD8B974
:105AB0000134082C05F14005F5D10024114E25468E
:105AC00021463046FFF72AFB48B90134102CF7D1A4
:105AD000BDE8704008482C2200210DF07DBFE0B2E7
:105AE00004F04EFA0574F0E72846FFF751FFDFE7B0
:105AF000FBF776FB70BD00BF64240020A4240020C7
:105B00008C2400208D24002008B520B119B191F813
:105B100034305B0701D4FBF763FB084BC91AB1F5BE
:105B2000E07F09D8891190F8282081F0070101232E
:105B30008B40134380F8283008BD00BFA424002008
:105B400070B50546084621B10D4BCB1AB3F5E07F81
:105B500005D80B4E2835FFF77BFE044610B900240C
:105B6000204670BD94F834305B0706D5A11B89111F
:105B70002846FFF7D3FA0028F2D12046EBE700BF12
:105B8000A424002038B538B100F12C04074DAC42F4
:105B900004D30024204638BD054CF7E72046FFF724
:105BA000CDFA0028F6D02C34F1E700BF9024002075
:105BB000642400202DE9F8431F4613460A46014697
:105BC0000020089EFFF794FD044600283DD090F881
:105BD0003430B74243F0040380F8343001D2FBF78D
:105BE000FFFA07EA0605681C36D01D4B18684369A2
:105BF00001332DD00DF05EF8711C05461CD0194BF9
:105C00001948B3F9009004F114084146FDF768FB08
:105C10000023C4E9053644F6CC731348E3832462B9
:105C2000A4F81C904146FDF725FBB21C04D0731963
:105C3000013308BF01362E44FB1C0FD87B190133FA
:105C400008BF01373D44C4E90E562046BDE8F8833D
:105C500083685B689847CFE72E46F4E73D46F2E756
:105C60004C7D01003C2000204024002010B50A4B50
:105C70009B690246002013B94FF0FF3010BD5C68ED
:105C800020445C898C4204D1002AF7D0DC6894421D
:105C9000F4D01B68EFE700BF40240020F8B50F46A2
:105CA00016461D46044608B9FBF79AFA082BFBD89E
:105CB0004B1E1F2BF8D8FFF78BFA204600223946DF
:105CC000FFF776FB044620B9FFF788FA6FF00B0068
:105CD000F8BD2EB125B12A46314620300EF0BAFA71
:105CE000B4F8683084F86C5023F4C06323F00703E1
:105CF00043F4C063A4F86830FFF770FA0020E7E7C8
:105D000070B505460E46FFF763FA00242046FFF7FC
:105D10009BFA044678B1B4F86830C3F304139E428A
:105D2000F4D104F10801284607F065F80028EDD009
:105D30002046FFF7FBFABDE87040FFF74FBA38B5D1
:105D40000546FFF745FA00242046FFF77DFA044692
:105D500088B194F86A30DA07F6D504F108012846CC
:105D600007F049F80028EFD0B4F868305B0702D09C
:105D70002046FFF7ABFABDE83840FFF72FBAF8B579
:105D80000C6806460D461746FFF722FA2046FFF735
:105D90005BFA044670B194F86A30DB07F6D52EB191
:105DA000B4F86830C3F304139E42EFD1394620465D
:105DB000FFF76AFB2C60FFF711FA2868003818BF5C
:105DC0000120F8BD10B58AB0014604462822684675
:105DD00007F07CF8014619480EF050FE238B13F4AF
:105DE000F87FC3F3041102D015480EF047FEA17EE0
:105DF0006A4604F1100007F015FA014611480EF04A
:105E00003DFE238B1B0702D50F480EF037FE238B78
:105E10000E4A0F4803F0070352F823100EF02EFE2F
:105E2000238B0C4A0A48C3F3412352F823100EF087
:105E300025FE09480DF040FC0AB010BD186E0100A7
:105E4000925C01009B5C0100A65C0100A878010047
:105E5000586F0100987801002D5E01002DE9F8438C
:105E6000DFF834801F460B4B144605460E4640466D
:105E70001146B3F90090FDF733FA0023C4E9003767
:105E80006681E560A4F8089021464046BDE8F843E5
:105E9000FDF7F0B93C2000204024002010B50A494D
:105EA000082204460EF0ACFD48B12378FF2B08D140
:105EB000607800F00F00831E5842584110BD012049
:105EC000FCE70020FAE700BF2E79010008B504497D
:105ED00010220EF095FDB0FA80F0400908BD00BF19
:105EE0004E790100002103F097BD08B5FFF7C0F916
:105EF00028B190F86A3013F0010F08BF002008BDE8
:105F0000044B18684369013301D00CF0D3BE836899
:105F10005B6818474C7D010038B505685DB195F8A0
:105F20006A301B0707D5FFF729FB00242046FFF73F
:105F30008FFC044600B938BD23689D42F6D1FFF7B7
:105F40005DFCF3E741F2020383430CBF0120002014
:105F5000704708B510F4007304D0FFF7F3FF00F0AA
:105F6000010008BD1846FAE7D0F8142108B510461C
:105F7000FFF7EFFF20B9530704D5C2F3003008BD87
:105F80000020FCE70120FAE738B5084CFFF720F9BC
:105F9000A16929B10D682046FDF7A2F92946F8E765
:105FA000FFF70EF9BDE83840FFF718B9402400208C
:105FB00038B5044608B9FBF713F902F04CFB47F279
:105FC0003053C4F8003104F114000025FEF76CFDD5
:105FD000154984F80F5184F81051204602F0A6FDAF
:105FE0001249204602F0A2FD20461149402201F04C
:105FF00077FB2046FFF7B8FF88B14FF47A71284647
:1060000008F060FF04F1BC02034644F6C371204669
:10601000FFF724FF2046BDE8384002F023BB2046AE
:1060200001F0A8FAF6E700BFFE7801000E79010042
:106030002E79010070B50D46044608B9FBF7D0F87B
:1060400002F009FB1B4804F1AC01FDF749F92046B9
:10605000FFF78AFF00B3174804F1BC01FDF740F9D0
:1060600004F1170504F147062846FFF717FF18B19A
:106070002946204602F0C4FE1035B542F4D1204630
:106080000D4902F05FFE20460C4902F05BFE2046FF
:10609000BDE8704002F0E6BA064804F19C01FDF745
:1060A0001FF9002DDCD0FD2384F80E31204601F0CD
:1060B00061FAD5E7402400200E790100FE78010046
:1060C00010B5044608B9FBF78BF802F0C4FA4FF498
:1060D0007A73C4F8083194F8113143F0010384F85D
:1060E00011314FF4E163A4F80C314FF0FF33C4F8E1
:1060F000FC30002384F80E31D4F8143143F40073DB
:1061000043F002032046C4F8143102F0A3F82046FD
:10611000BDE8104002F0A6BA2DE9F04F8DB09346CD
:1061200003919946044608B9FBF75AF802F093FA2E
:10613000FFF74EF89BF80030853B032B7FD8DFE854
:1061400013F0040097008C02BF03D4F814319807B1
:1061500075D5039BDB79FF2B71D19BF80130002BA8
:106160006DD1B9F1070F6AD9039BA9F108080BF1AA
:1061700008070833BA464546049345BB039B03F121
:1061800008063046FFF7A2FE40B9B8F1000F30D143
:10619000B4F9D6113046FFF7A8FE0546D4F81431FD
:1061A00013F480505AD14FF4FA7108F08BFE44F684
:1061B000C67106462046FFF759FD86423FD85DB3BB
:1061C000334605F1480244F6C571284635E0A94535
:1061D00035D39AF8016096B39AF80030012B03D1B9
:1061E0000498FFF773FE50BBA5EBC6050AEBC60A81
:1061F000C3E73B78012B09D1D4F81431D90405D475
:1062000003993B465A462046FEF782FC7B78A8EB72
:10621000C30807EBC307B8E7FFF772FED4F8FC30FA
:10622000B24A934213D940F6B733984213D9334652
:1062300004F19C0244F6C6712046FFF70FFEFEF7FC
:10624000CDFF20460DB0BDE8F04F02F00BBAA0F62E
:10625000B8308342EBD206F6B836E8E703F006031F
:10626000062BECD100223146204601F037F9E6E753
:10627000039B083318460693FFF710FE0028DED074
:10628000039BDB79FF2BDAD19BF80130002BD6D1B1
:10629000B9F10F0FD3D9D4F81431DA0407D4BBF80D
:1062A00006305BBA9BB242F228329342C7D8A9F1BA
:1062B000100305930BF11005059A2B460027002AC1
:1062C00040F0B180002F00F0C4803846FEF7D0F8CF
:1062D0000028B4D0FE88B3B2002B00F0B78076BAA5
:1062E000B6B24EF660235E430746D4F81401FFF7BA
:1062F00030FEB4F9D611002840F0AE80BBF806801D
:106300001FFA88F3002B00F0A7800698FFF706F924
:106310000490002893D098FA98F84FF47A731FFAF3
:1063200088F803FB08F802464346043244F6CD7170
:10633000FFF794FD464528BF46469BF804300BB155
:1063400084F8D431DBF808309BB193FA83F8D4F8A1
:10635000003198450DD02046654B04F1AC0244F65F
:10636000CE71FFF77BFDC4F8008104F11400FEF745
:106370009BFBDBF80C3013B11BBAC4F80831049B4B
:10638000C3B1D4F81401C30414D5FFF7E2FD88B9F2
:1063900004F1130804F1170904F1160A18F8012F83
:1063A00012F0EF0F02D04846FDF748FFC24509F151
:1063B0001009F3D1059B002B57D1049B002B3FF410
:1063C0003EAFFCF70DFE9BF905209BF80530002A37
:1063D00080F2398194F81131B4F9D60143F0020307
:1063E00084F81131FCF73AFED4F81401FFF7B1FD3F
:1063F00020B9404804F1BC01FCF772FFD4F8140145
:10640000C5047FF51CAFFFF7A4FD00287FF417AF8C
:10641000204601F013F9B30803EB430304F1BC0277
:1064200044F6C37108E79145FFF409AF5978002994
:106430003FF405AF1878232803D1002F7FF4FFAE77
:106440001F46A2EBC10203EBC10338E742F210760C
:1064500047E74FF0FF3648E70698FFF7C7F808B15F
:10646000FFF75AFD0023049367E72B78052B20D014
:106470000BD8012B16D0032B4AD06B78059AA2EBD0
:10648000C302059205EBC30594E7182B20D0222BFD
:10649000F3D13A4629465846FEF738F8864228BFD7
:1064A0000646EAE703992B465A462046FEF730FB9C
:1064B000E3E76B78012BE0D19BF80030862BDCD131
:1064C0006B681BBAB3F5A06FD7D3A4F81231D4E729
:1064D00005F108084046FFF7E1FC0028CDD16A68C5
:1064E000A9784AB94046FEF745FDC6E747F4FFFFE5
:1064F00000DD6D0040240020B2F1FF3F18BF10BA4C
:10650000B4F9D631069A00904046FEF7BDFCB4E7D8
:106510006B680893AB6809936B78042B05D04FF038
:10652000FF339E4228BF1E46A7E79BF80030862B0C
:10653000F5D105F110094846FFF7B0FC0028EED16F
:10654000089B93FA83FA099B93FA83F8C245E6D332
:10655000D4F81411EA78CB0401D51006DFD4510623
:1065600004D5AA784946204601F0BAF8EA783F2ACD
:1065700007D8D4F81401FFF7E5FC0028CFD0002F8E
:10658000CDD0AB7807936A68E2B9904613E098F8EB
:1065900034305A070FD598F83530079A93420AD10C
:1065A000494608F1040006F03CFC079B984202D3E0
:1065B0004046FFF71DFA4046FFF74AF9804600289B
:1065C000E5D1ACE7089B013308D0BA4A92459ABF9F
:1065D0004FF47A7202FB0AFA6FF0010A099B013349
:1065E00008D0B44A90459ABF4FF47A7202FB08F87B
:1065F0006FF00108CDF800804946079AB4F9D6013A
:106600005346FFF7D7FA8146002888D01FB10146CC
:106610003846FFF779FA95F90320E978002ABEBFDA
:10662000B9F8362042F00102A9F836204B0642BFE5
:10663000B9F8362042F00202A9F83620C245534686
:1066400028BF43466DE75F067FF5CEAE01283FF4D5
:10665000CBAE0220FCF7BAFCC6E6039BDB79FF2B2E
:106660007FF4EDAD9BF80130002B7FF4E8ADB9F17C
:10667000170F7FF6E4AD9BF80830FF2B3FF4DFAD3A
:10668000039B03F108073846FFF720FC48B1039B42
:1066900089490D2203F118000EF0B2F900287FF4A9
:1066A000CEAD0BF108052946204602F03BF9031E4A
:1066B0000493FFF6C4ADA9F118080BF11806324691
:1066C0004346D3B9284602F01AFA814690B301F046
:1066D000C2FF2946484602F025F9B0F1000A26DB40
:1066E00009EB0A031B7D590721D03846FFF7EEFB63
:1066F00078B9484601F0B6FFA1E59945FFF49FAD92
:10670000517800293FF49BADA3EBC10302EBC1021A
:10671000D7E709EB0A11CC316848FCF7E1FD4846A0
:1067200001F0A0FF2946484601F026F887E54846D3
:1067300001F098FF3846FFF7C9FB38B100230093FA
:106740003A462146284601F083FA78E5D4F8143118
:10675000DA0705D4B4F9D61103223846FEF728FE2D
:106760004FF0000AD146B8F1000F20D1BAF1000F66
:1067700037D0B9F1000F3DD00399CDF800905346C2
:106780005A462046FDF794FF064600283FF457ADD1
:10679000049B23441B7D9B0640F18380B4F9D611F2
:1067A0002846FFF7A2FB804630BB304653E03378E3
:1067B000012B08D0212B08BFB2467378A8EBC30881
:1067C00006EBC306CFE7D4F81401FFF7BBFB30B9E3
:1067D000039933465A462046FEF79AF9EDE7B1464B
:1067E000EBE7B9F1000F05D003994B465A46204616
:1067F000FEF78EF90026CBE7D4F8143113F0020F20
:10680000039B1B7E14BF4FF0C0094FF04009FF2BC4
:1068100028D194F830A104F5947152460AA80DF0DD
:1068200019FDBAF1000F19D0324651460AA801F0FD
:106830005CF90028B9D0064628463246494601F0A0
:10684000D7F805460028B0D03A460021FDF77BFC7A
:10685000064650B92846FFF745FBF0E449F0200909
:106860003046E8E749F02009E6E74368FF22DA719D
:1068700000231A461946184602F06AFD054600280C
:1068800093D04368B4F8D6215A804FF47A710660E9
:10689000002008F017FB08F13802034644F6C271E5
:1068A00093E4039B1B7E0096A3F1FF0673427341A2
:1068B00046E700BF378941001E79010040240020CF
:1068C000039BDF79FF2F7FF4BAAC9BF80130002BDC
:1068D0007FF4B5ACB9F1170F7FF6B1AC9BF8083077
:1068E000FF2B3FF4ACAC039B1B7EFF2B04D19BF82A
:1068F000043058063FF5A3ACA9F118080BF11806AF
:1069000032464346FBB90BF10809484602F0F7F856
:10691000054638B301F09FFE4946284602F002F8CA
:1069200000281CDB2B181B7D590718D005EB001025
:1069300000F1CC013548FCF7D3FC284601F092FE6B
:1069400049462846F0E69945FFF479AC517800298C
:106950003FF475ACA3EBC10302EBC102D2E72846BA
:1069600001F080FEB4F9D6114846FFF7BEFA05469D
:1069700000283FF464AC4FF0000909E03378022BA3
:1069800031D0212B38D07378A8EBC30806EBC306AF
:10699000B8F1000FF2D1B9F1000F0DD19BF804301E
:1069A0005A0609D5B5F8683003F00703022B03D067
:1069B00029462046FEF74EF9D4F8143113F00103AE
:1069C00004D15A4629462046FEF756F9FF2F7FF498
:1069D00036ACD4F81431DB047FF531AC03981830B1
:1069E00000F048FF2BE433465A4629462046FEF77E
:1069F00043F94FF00109C6E7CDE900650399334635
:106A00005A462046FDF788FC0746BCE74024002094
:106A100038B50D46044601F01EFE3DB1204600F09B
:106A20000DFE2046BDE8384001F01CBE4FF47A71DF
:106A3000284608F047FAFD2384F80E31D4F81431C3
:106A400023F004030546C4F81431204600F092FDFB
:106A5000D4F81401FFF77DFA0028E2D12B4604F1A7
:106A6000BC0244F6C3712046FFF7F8F9D9E70000ED
:106A700038B5044601F0EFFD2046FFF775FA38B34C
:106A800044F6C3712046FFF7F1F8D4F81431DA0464
:106A900023D594F80F31022B42F210750AD9033B2B
:106AA0004FF47A6202FA03F31D444EF660239D42CE
:106AB00028BF1D46A8420BD91149204601F054F9C0
:106AC00094F80F31092B0BD9D4F81431DB040DD411
:106AD0002046BDE8384001F0C5BD4FF47A65E9E7CE
