:1010000000020020451F0000E11E00009D1E0000A0
:10101000F11E0000011F0000111F00000000000071
:10102000000000000000000000000000811E000021
:10103000211F000000000000351E0000311F0000CD
:10104000A7D0000051DC0000EDD60000092300000D
:1010500025230000A7D00000A7D00000A7D00000E3
:10106000A7D00000D5D40000DBD40000A7D000003A
:10107000A7D00000A7D00000A7D00000A7D0000094
:10108000A7D00000F1D10000A7D00000A7D0000039
:10109000A7D00000A7D00000A7D00000A7D0000074
:1010A000A7D00000A7D00000E1D40000E7D40000E2
:1010B000A7D00000A7D00000000000000000000042
:1010C000A7D00000A7D00000A7D000004123000057
:1010D000A7D00000A7D00000A7D00000A7D0000034
:1010E000A7D00000A7D00000A7D00000000000009B
:1010F00000000000A7D00000000000005D230000F9
:1011000000B50848A1B0082100F028FB06480FF000
:10111000F5FF06480FF0F2FF8022694600200FF02D
:10112000CBF8F9E7B002002098310100BF3101008F
:1011300070B5064E064CA41BA4080025AC4200D195
:1011400070BD56F8253098470135F7E79C590100E6
:10115000C05901007047000008B5EFF30583DBB20A
:1011600043B9EFF310832BB904480FF0C7FF00F029
:10117000BFFCFCE70149032000F03AF8DD31010033
:1011800008B57146024811F099F9FFF7E5FF00BF75
:10119000EF31010008B5FFF7CBFF03480FF0AEFFBA
:1011A000FFF7AEFF002008BDF83101001FB5EFF3D7
:1011B000108372B6074B029300230193064B0093F2
:1011C000072204234FF4C061044800F0E9FC00F05A
:1011D0001BFE00BF3032010095110000F00200201C
:1011E00008B50CF04DFEBDE8084001F0D5BA7047D7
:1011F00008B50D4B1A680C467AB901221A60FFF740
:10120000F6FF2146094811F059F90CF085FE0A2035
:1012100010F062FA06480FF071FFEFF3108372B618
:1012200000F07CFD0BF09CFFF0080020353201003F
:101230005132010070B50D460021044600F09EFABF
:101240000D4E70B9BFF35B8FE288BFF35B8F3388BD
:1012500012B21BB29A4204D06DB90121204600F0AF
:101260008DFA3388BFF35B8FE380BFF35B8FA38876
:101270000133A380012070BDC80900200021FFF7C1
:10128000D9BF000008B50F4BBFF35B8FC188BFF318
:101290005B8F1B8809B21BB2994201D0FFF770FF28
:1012A0008388002BFAD0013B9BB2838043B9BFF304
:1012B0005B8FC380BFF35B8FBDE8084000F094BA3A
:1012C00008BD00BFC80900202DE9F04704460E46BE
:1012D0001746EFF3108872B60568C5B9DFF8889035
:1012E000051DD4E90331A2689A1A8A4222DC1D4AFC
:1012F00012883280581C6269E0600B4096E8030057
:1013000002EBC30383E8030088F3108810E055F86C
:101310000C390360D1E900012B6983E803002846FA
:101320000C2100F0DDFA687988F3108800F018FBD2
:10133000012714E08FB1D9F800A00921504600F030
:10134000CFFA5146284600F00DFC88F3108800F0D3
:10135000E9FBEFF3108872B6C3E788F310883846CC
:10136000BDE8F087C80900203C09002070B50B4695
:1013700004461046EFF3108672B6D4E9022191427A
:101380001DD0501CA060206961696568024001EBB6
:10139000C20292E8030083E803001DB986F31088B7
:1013A000012070BD55F80C39636028460C2100F00F
:1013B00097FA687986F3108800F0D2FAF0E778B1EE
:1013C000094A156809212B61284600F089FA294647
:1013D000204600F0C7FB86F3108800F0A3FBDFE790
:1013E00086F31088DDE700BF3C090020F8B504460D
:1013F000EFF3108672B6334F3B685A6A002A5BD00F
:10140000D3E90620904257D0501C9861186A0240D8
:1014100039B9596929B9511C03D186F3108810468E
:10142000F8BD002A4CDB596A01EBC20103C984E80C
:1014300003005D699DB9002A2CDA0421184600F0EA
:101440004FFA86F31088204B4FF080525A60BFF35A
:101450006F8F3B681B79042B1ED1FFF791FE55F867
:101460000C195961002A0DDBD3E9072099695C6AE0
:10147000511A8842A9BF511C4FF0FF320240D96176
:1014800004EBC2042B6993E8030084E803002B7982
:10149000062B03D186F310880122C0E700232846DB
:1014A0002B610C2100F01CFA687986F310880E2855
:1014B000F2D800F055FAEFE74FF0FF320029A8D03C
:1014C0001C61B6E73C09002000ED00E00346D0E9CE
:1014D000072010B59C69141BA04201DA002010BD42
:1014E000541C0240DC61F9D4586A00EBC20203C903
:1014F00082E803001A896FEA42426FEA52421A8177
:10150000184600F095FA0120E9E7000008B50E4BF7
:1015100053F82130A3B11A79042A0BD103C81A69F0
:1015200082E8030018460C2100F0DAF9074B01208D
:10153000186008BD01461846BDE80840FFF7C6BF61
:101540004FF0FF30F5E700BF4409002038090020C4
:101550002DE9F0411D46294B53F82140284B1B88AB
:101560000380064690462CB985F310884FF0FF3073
:10157000BDE8F081234B1F682379042B34D001464A
:101580002046FFF7A3FF78B185F310883B79062B3F
:1015900002D01D4B1B682BB11C4B4FF080525A6080
:1015A000BFF36F8F0120E3E7B8F1000F02D185F39D
:1015B0001088DDE73B793E61062B14BF052106212B
:1015C000384600F08DF904F11400394600F0CAFAEB
:1015D00023896FEA43436FEA53432381204600F097
:1015E00027FA85F31088D7E7D0E90001236983E85B
:1015F00003000C21204600F073F9F2E744090020B3
:10160000C80900203C0900203809002000ED00E056
:1016100010B50146EFF3108472B6054B1B880380AA
:10162000044B1868FFF752FF84F3108810BD00BF09
:10163000C80900203C09002021230380FFF766BF72
:10164000EFF30583DBB20BB1FFF7F6BF064B1B8848
:101650001BB2994201D1FFF7DBBFEFF3108372B6E3
:101660000122FFF775BF00BFC809002010B4EFF3D7
:10167000058212F0FF0203D05DF8044BFFF7DCBFD8
:10168000074B1B881BB2994203D15DF8044BFFF74F
:10169000BFBFEFF3108372B65DF8044BFFF758BF7E
:1016A000C8090020104B1B881BB29A422DE9F0415B
:1016B00006460C46154601D1FFF762FDEFF3108890
:1016C00072B60A4B1F680621384600F009F996E801
:1016D00003003C61434684E803000122294620467A
:1016E000BDE8F041FFF734BFC80900203C090020E5
:1016F00038B5EFF3108572B60F4BB0F9002053F8F0
:1017000022400CB9FFF73CFD2379062B04D085F36A
:1017100010884FF0FF3038BD03C9236983E8030008
:1017200020460C2100F0DCF8607985F3108800F089
:1017300017F90120EFE700BF440900200021FFF75F
:1017400055BE0121FFF752BE034B1B68586A10B10A
:10175000D3E90630C01A70473C09002008B5064B93
:101760004A1E1B681140586201D0FFF709FDC3E90A
:1017700006111A6208BD00BF3C09002070B504467E
:101780000846EFF3108672B6236833B94FF0FF3383
:10179000236086F31088012070BD11B986F310888C
:1017A000FAE70F4B1D680DB9FFF7EAFC0321284645
:1017B00000F096F8236801330DD105F10C03236086
:1017C0000023EB6086F31088064B4FF080525A607E
:1017D000BFF36F8FDFE72946204600F0C3F9F1E73A
:1017E0003C09002000ED00E038B50446EFF3108519
:1017F00072B6006810B985F3108838BD431C02D159
:1018000000232360F7E750F80C3923600C2100F027
:1018100067F8236813B94FF0FF33236085F310880E
:10182000034B4FF080525A60BFF36F8FE5E700BF64
:1018300000ED00E008B503790B2B04BF0C23037106
:10184000836A1A68934208D0B0F90610034810F072
:1018500035FE03490D20FFF7CBFC08BD5E320100C9
:101860008D32010070B5184C184E2368356843BBA3
:1018700015B12846FFF7DEFF00F00AFB2368002BB6
:10188000FAD00020124B00221A602368114AB3FAE2
:1018900083F352F823301C680C3C0B23AC422371B9
:1018A0000DD008B1FFF7C6FF0B4BA16AB4F90620B3
:1018B0001A801F31094A3460022000F01FFA2046C6
:1018C00070BD2846DEE700BFF40800203C09002078
:1018D00038090020F8080020C80900200800061672
:1018E0000A2930B503791AD90A2B14D842791A4B30
:1018F00053F8225000F10C047DB12D68C56053F8F7
:1019000022502C6043F82240144C4FF00043D34047
:10191000226813432360017130BDC460F2E70A2BD3
:10192000F9D945790C4A52F825303BB11C68A342DD
:101930000BBF0023246842F825301C60437952F81D
:101940002320002AE7D1054C4FF00042DA402368FB
:1019500023EA0203DEE700BFF8080020F4080020B5
:101960000B4B1B685A791B790A2B01D990420DD277
:10197000EFF30583DBB21BB1064B01221A607047FF
:10198000054B4FF080525A60BFF36F8F704700BF16
:101990003C0900203809002000ED00E008B5EFF315
:1019A000108372B6084B094A1B88094C1BB20021F0
:1019B00042F82310074A20681368013B1360FFF7C1
:1019C0008FFF216000F020FAC809002044090020A0
:1019D0003C0900204009002010B50346EFF31084B5
:1019E00072B6028902EA010022EA01021A8184F336
:1019F000108810BD0C4A034610B51068EFF3108430
:101A000072B6028913420CD103610721FFF768FF08
:101A100084F31088054B4FF080525A60BFF36F8FEC
:101A200010BD84F31088FBE73C09002000ED00E0C6
:101A300010B50379048A072B03D0082B0CD000249F
:101A400008E003891C4005D00C21FFF749FF054B36
:101A500001221A60204610BD03899C43EFD1012466
:101A6000F2E700BF3809002038B5054B1D68044671
:101A7000FFF7C0FF21462846BDE83840FFF7ACBF5E
:101A80003C09002010B5EFF3108472B60389027987
:101A90001943072A038A018104D0082A13D084F34A
:101AA00010880FE01942FAD00C21FFF719FF074BFD
:101AB00001221A6084F31088054B4FF080525A605F
:101AC000BFF36F8F10BD8B43E9D1EDE738090020DC
:101AD00000ED00E0431E9BB21F2B05D8034B53F8CB
:101AE000200010B1C06A70470020704744090020F0
:101AF00010B5EFF30583DBB27BB9EFF3108472B658
:101B0000064B02211868FFF7EBFE84F31088044BA4
:101B10004FF080525A60BFF36F8F10BD3C09002018
:101B200000ED00E0EFF3108072B60B4B1B681A79E2
:101B30000A2A07D95A79094B53F8221011B10968BA
:101B400043F8221080F31088054B4FF080525A6002
:101B5000BFF36F8F704700BF3C090020F8080020DA
:101B600000ED00E038B50B790A2B01D9FFF708FB2F
:101B70004C7901F10C020346006818B110F8075CBB
:101B8000A542F8D9C8601A6038BD034601448142B5
:101B900002D90268824201D0C01A70470430F6E7C9
:101BA0000F2A2DE9F84F05468A469046994632D8C5
:101BB00010F003031DBFC3F10402043B5B180B4686
:101BC000A3F1340318BFAD1823F0030319F0080F75
:101BD00005EB030416D02D60EFF3108B72B6284A84
:101BE0000126114652F8047FC7B10136212EF9D1E2
:101BF0008BF310886FF08A063EE012600432A24236
:101C0000FBD3E9E72A46FAE702212046FFF768FE00
:101C10008BF3108830E06FF015062DE036B22A46BF
:101C200041F82640DDE90A01E68000F09FF80C9BB0
:101C3000144AE3624FF0FF33C4E9083713682060A9
:101C4000013319F0010FC4E90377C4E90577A562F0
:101C5000C4F830A084F805802771E7611360D3D100
:101C60000C212046FFF73CFE19F0040FD0D18BF376
:101C700010884046FFF774FE3046BDE8F88F00BF7D
:101C8000440900204009002008B5034B53F8200008
:101C900008B9FFF775FA08BDF05301000C4B0D4A67
:101CA00010B540219A600C4CE02283F82220D977AD
:101CB0000022A0180132302A80F80013F9D11A69E5
:101CC00042F010021A615A6942F400725A6110BD62
:101CD00000ED00E00010000000E100E0064BD3F84A
:101CE000942042F00502C3F894205A6A42F48032EC
:101CF0005A620020704700BF00ED00E0064B21F063
:101D00001F0142F00102C3F89800C3F89C100020A4
:101D1000C3F8A020704700BF00ED00E008B5EFF366
:101D20000581C1F3080119B10548103910F0C6FB4F
:101D3000044BD3F8F030DB0700D500BE08BD00BF70
:101D40000633010000ED00E0BFF34F8F0549064B5D
:101D5000CA6802F4E0621343CB60BFF34F8F00BF49
:101D6000FDE700BF00ED00E00400FA051A4422F090
:101D7000030210B54FF0773442F8044C540758BFB3
:101D80004FF08834A2F104035CBF42F8084CA2F182
:101D900008034FF0807243E902020D4A43F80C2C0D
:101DA0000020032243E9052043F8201C01220224DD
:101DB000194643E907246FF0020241F8242D0B2253
:101DC00041F8042D013A032AFAD1A3F1440010BDD1
:101DD0009D190000054B064A06481968914201D139
:101DE000834201D3C01A70470433F6E70000002095
:101DF000FEE7FEE700020020EFF3088070470000D6
:101E000000487047000000200023E1EE103AEFF395
:101E1000148323F0040383F31488BFF36F8FEFF36D
:101E2000108362B6024B4FF080525A60BFF36F8F3F
:101E300000ED00E0114910B50C6872B6FFF712FD15
:101E400062B6A04208BF10BD2146BDE8104049B1AE
:101E5000EFF309821EF0100F08BF22ED108A22E96D
:101E6000F04F0A600068B0E8F04F1EF0100F08BF96
:101E7000B0EC108A80F30988704700003C0900200C
:101E8000024B4FF080525A60704700BF00ED00E0F7
:101E900030BF62B6BFF36F8F72B670470D4B0E4AFC
:101EA0000E496846904203D8984201D9002102E0C9
:101EB00009468D46012104207246024202D1EFF309
:101EC000088001E0EFF309802DE9F00F6B4600F088
:101ED0008FF800BF580100200000042000020020FD
:101EE00008B502490620FFF783F900BF153301004A
:101EF00008B502490520FFF77BF900BF2133010037
:101F000008B502490820FFF773F900BF3433010018
:101F100008B502490920FFF76BF900BF46330100FD
:101F200008B502490A20FFF763F900BF5A330100E0
:101F300008B502490B20FFF75BF900BF6C330100C5
:101F400070477047204AD2F8883043F4700310B5C8
:101F5000C2F88830FFF7F4FF6A461C4B1C491C4648
:101F600093422DD31B4B1C48DA1C121AC11E22F0BF
:101F70000302994288BF002218490FF08BFE184BCC
:101F80001848DA1C121AC11E22F00302994288BFB7
:101F9000002200210FF040FA24B1134A1349012016
:101FA000FFF7ACFEFFF79AFEFFF7CBFF00F064F9F6
:101FB000FFF7D0F80FF032F8BDE81040FFF7F6B8A1
:101FC00043F8041BCCE700BF00ED00E00000002058
:101FD000FEE7FEE7AC02002000020020705A01007C
:101FE000FC570020B0020020080006161F00002049
:101FF0002DE9F04F9A46564B8FB093469A6B039259
:102000005A6B0492D3F82880DA6A05921A6BDB6B5C
:102010000793504B06921A684F4B9A4204460E465D
:1020200002D04E480FF06AF8002E62D04C480FF0F4
:1020300065F84C4B4C48198809B210F03FFA00255E
:102040002F464A480FF05AF84146494810F036FAF0
:102050000599484810F032FA0699474810F02EFAD0
:102060000799464810F02AFA18F4004F03D0039954
:10207000434810F023FA18F0800F03D00499414828
:1020800010F01CFA40480FF039F84048594610F05B
:1020900015FA002E29D11BF0080F53D0314B1E88A2
:1020A00036B23046FFF716FD31460246384810F08A
:1020B00005FA38480FF022F83946374810F0FEF993
:1020C0006946364BC91A03D53548494210F0F6F92E
:1020D00020468268C36801698C4641698E46AD46D8
:1020E000514691E8F00F416800682E490720FFF73C
:1020F0007FF8D4E90230D4E90679D4E900120890D7
:102100002069099060690A9019F4007F26480B91B4
:10211000CDE90C230CBF04F1200504F124050EF0D9
:10212000EDFF089B0B9900932048DDE90C2310F08C
:10213000C5F9DDE90912CDF800903B461C4810F0C6
:10214000BDF97EE7217F1B48103910F0B7F9B0E7E1
:1021500000ED00E000000020FEE7FEE77A3301001A
:1021600090330100C8090020BF3301006934010029
:10217000723401008234010092340100A234010063
:10218000B2340100C2340100D2340100D73401005E
:10219000E9340100283501005935010058010020BB
:1021A00081350100AE350100D3330100EE3301006B
:1021B0002B3401000235010070470000EFF310815D
:1021C00072B6094A13680133012B136009D14FF02D
:1021D00080420020C2F800011360D2F80031002BC9
:1021E000FBD081F310887047CC090020094A08B55C
:1021F00013680BB9FEF7C4FFEFF3108172B61368D2
:10220000013B13601BB94FF0804301225A6081F3F8
:10221000108808BDCC090020084A107868B94FF032
:1022200080430121C3F81815C3F804019960D3F85D
:1022300004110029FBD0012313707047CA09002044
:102240004FF0704393F8E02F062A12D1D3F8E40F31
:1022500010F00F000DD1D3F8E82F02F0F002302A71
:1022600008D1D3F8EC3F13F0F00F0CBF0120002091
:10227000704700207047000010B5FFF7E1FF30B154
:10228000184AD2F8FC3023F08073C2F8FC30FFF714
:10229000D7FF20B14FF080430322C3F8A025FFF7FA
:1022A000CFFF30B14FF080430022C3F80C21C3F8B8
:1022B00010214FF080430124C3F87845D3F840261D
:1022C000A24208BFC3F88045FFF776FF064BC3F86C
:1022D0004045FFF7E3FCFEF783FFBDE810400BF03D
:1022E000EEBD00BF00ED00E000E00140044B1B68C4
:1022F0002BB1044B4FF080525A60BFF36F8F704781
:102300003809002000ED00E008B5044A044B1068CD
:102310001B689847BDE80840FFF7E8BFD0090020D8
:10232000E009002008B5044A044B50685B689847F0
:10233000BDE80840FFF7DABFD0090020E00900201F
:1023400008B5044A044B90689B689847BDE808406C
:10235000FFF7CCBFD0090020E009002008B5044AEF
:10236000044BD068DB689847BDE80840FFF7BEBF64
:10237000D0090020E009002043680221184708B571
:10238000082143689847002008BD022970B408D18D
:10239000052B09D943691360038B9380062070BC19
:1023A000704770BC0AF018BB6FF01500F7E700002B
:1023B0002DE9F74F0B4605460C46002703BB05F1F8
:1023C000380901214846FFF7D9F97E2328698DF89D
:1023D000063001220DF106010BF048F9DFF864A088
:1023E000DFF864B084B9286901220DF106010BF011
:1023F0003DF94846FFF7F8F9384603B0BDE8F08FDD
:102400009A681B681744D9E7D4E9016306EB03080F
:102410004645286901D12468E4E716F8013B8DF8A8
:1024200007307D2B07D07E2B08D001220DF107014C
:102430000BF01CF9ECE702225146F9E7022259465B
:10244000F6E700BF2654010024540100436B012B22
:1024500010B5044610D0FF2B0DD0CBB9EFF310838D
:1024600072B6C26A826283F310887E2120300DF03A
:102470007EFFFF23636310BDEFF3108372B6054840
:10248000C268826083F310887E210AF0A9F8F0E721
:10249000FEF776FE00020020436B012B10B50446C8
:1024A0000CD0FF2B10D06BB920300DF060FF00284E
:1024B0000ADA2046BDE81040FFF7C8BF03480AF01B
:1024C0008FF8F4E7FEF75CFE10BD00BF00020020AD
:1024D00038B590F83030012B04460D4609D0022B58
:1024E00021D06BB97E290BD1012280F830206363A3
:1024F00006E0FFF7D1FF7D2D03D1022384F83030B1
:1025000038BD7E2DFCD1616B012906D0FF2904D096
:1025100039B963680BB120469847002384F83030FE
:10252000E5E7FEF72DFE5E2912D85C2907D82129A0
:1025300015D0A1F12203012B0CD800234363012302
:1025400084F8303029462046BDE83840FFF7A4BF64
:102550007E290AD02046BDE83840FFF777BF012327
:102560000022C0E90A224363C8E7FFF795FFD4E7DA
:102570002DE9F743054600F138071E460C467E2339
:102580000121384690468DF80330FFF7F7F82869A7
:1025900001220DF103010BF069F85EB17D2386F095
:1025A000200628698DF80430022201A98DF8056003
:1025B0000BF05CF8124EDFF84C90A044A04528695F
:1025C0000AD101220DF103010BF050F83846FFF754
:1025D0000BF903B0BDE8F08314F8013B8DF804302B
:1025E0007D2B06D07E2B07D0012201A90BF03EF8EF
:1025F000E4E702223146F9E702224946F6E700BF46
:102600002654010024540100F7B50D461A49016013
:10261000089E296801610021044680F8301041635A
:102620001EB1774236EA070701D0FEF7A9FDC0E9DF
:10263000083600F114061323C0E90A1181630373FD
:102640004273314600F0F8F8D5E9000123460B4A01
:102650000AF04CFF20697E230DF1070101228DF85D
:1026600007300BF003F80223062231462046FFF71D
:102670007FFF03B0F0BD00BF28540100D12400004B
:102680005E2910B519D00FD8232903D8202918D8CE
:10269000017005E05D29FBD1147874B17D230370CE
:1026A00000231370012004E07D2903D07E29EFD19F
:1026B000002010BD01231370FAE714780CB17E23BB
:1026C000EDE71478002CE3D081F020011970EFE7DA
:1026D0002DE9F347054617468846002945D00024D2
:1026E0008DF806408DF80740894600F1200A5046D3
:1026F0000DF009FE061E35DBBC420BD37E2E01D049
:10270000002E02DA6FF0680416E050460DF0FBFD73
:102710000646F3E748460DF107030DF10602F1B254
:10272000FFF7AEFF7E2E81440444E0D19DF80730D0
:10273000022B05D0032B0AD0204602B0BDE8F0875B
:102740000323062205F114012846FFF711FF062C8A
:1027500001BFD8F80030C5F81A30B8F80430EB8360
:102760000024E9E76FF00404E6E752B1203528467B
:102770000DF0C9FD7E28F3D00028F1DB013FF6D132
:10278000EEE7EFF3108372B6D0E90A24A41A83F3BC
:102790001088D1E709F024BF034B044A4FF4E1311C
:1027A00000200AF0A3BE00BF000200209527000011
:1027B000F7B500238DF80530184F012305460E4666
:1027C0008DF80630044601220DF10701384609F064
:1027D00012FFE8B11EB96FF0680003B0F0BD0DF153
:1027E000060320469DF807100DF10502FFF748FF8C
:1027F0000444631BB3420BD9084C9DF807307E2B71
:10280000E9D001220DF10701204609F0F4FEF4E7BA
:102810009DF807307E2BD6D1601BDEE7000200203A
:1028200010B50A460C46012301460248FFF7A0FEF8
:10283000204610BD542500200AF0A2B80AF0B6B810
:102840000346006838B10268904219BF13680360FC
:10285000002119601046704708B500B109B9FEF7AC
:102860008FFC4B68002BFAD0EFF3108272B60B6826
:1028700033B903686BB11B680B60036819600160B2
:10288000406882F3108830B1BDE808400121FFF7AD
:10289000F9B80960F3E708BD10B5EFF3108472B61C
:1028A000FFF7CEFF84F3108808B10023036010BD4A
:1028B00038B58569044685B10A4B18684369013308
:1028C0000CD00DF023FF23696A68C11A8A4226BF23
:1028D0009B181B1A00236B60206138BD83685B68FE
:1028E0009847F0E73C5801008369084A10B5044650
:1028F00010682BB15A6821460DF05EFF206110BDB3
:102900002146BDE810400DF03EBF00BF3C5801001D
:102910008369002210B504465A60A06930B143684B
:1029200023B90368A36163699847F6E72046BDE8C9
:102930001040FFF7D9BF000070B505460C46EFF315
:10294000108672B6FFF7B4FF05F118000368BBB933
:1029500023600460AB69A34206D10F4B626818681C
:1029600029460DF029FF286186F310880B4B1B6860
:102970002BB10B4B4FF080525A60BFF36F8F70BD7D
:1029800061685A68914203D3891A61601846DDE78D
:10299000521A23605A60DCE73C58010038090020D5
:1029A00000ED00E070B504460D46EFF3108672B6F8
:1029B000FFF77EFFA36904F118022BB92046FFF749
:1029C00093FF86F3108870BD9D4202D01A461B68A3
:1029D000F3E72B681360002BF0D05A6869680A444B
:1029E0005A60EBE7034B4161C0E902300023836189
:1029F000704700BF1129000058B1037843B1013876
:102A000010F8013F0BB901207047303B092BF7D973
:102A10000020704738B1054B0A0901F00F019A5C9C
:102A20005B5C027043700220704700BF4454010099
:102A30000E4A914230B5034616D80A2201201446A8
:102A40008A420ED963B103440A25B1FBF5F405FBB4
:102A50001412303203F8012D0A46092A2146F4D80F
:102A600030BD62430130EBE70A20EBE7FFC99A3B38
:102A7000FFF7DEBF88B1E9B1002340EA0102D207C7
:102A80000DD5C2070FD5CA070FD5814222BF0A460E
:102A900001461046421A0AD199400846704740083C
:102AA00049080133E9E74008EBE74A0801460846D0
:102AB0001146E8E70146F0E72DE9F84306460D46E2
:102AC00014460AB9FEF75CFB11462846FFF7D2FF11
:102AD000A042F7D8A84239D8B5FBF0F1B4FBF0F228
:102AE0000025B1FA81F44FF0004EC4F120002EFA17
:102AF00004FEC4F15F0C2B462C462F46DB1847EB37
:102B0000070811EA0E0F18BF43F00103934278F152
:102B1000000947464FEA44044FEA5E0E0FD39B1A62
:102B200068F1000744F00104002C0BDA3B4300D0AD
:102B30000134C0F1200333713460BDE8F883002C08
:102B4000F2D1013801356545D8D1EFE700200446C0
:102B5000EFE74269013201D00DF0D8BD83685B68B0
:102B600018472DE9F041DDF81880154600220E4681
:102B70001F46014608F10803104600F07BF90446A1
:102B800050B1406876BA6DBA8680C58027B142469A
:102B9000394608300FF07EF82046BDE8F08100008D
:102BA00073B506460C46002A3ED0072B3CD99188C7
:102BB000D088083B40BA49BA009389B202F10803B1
:102BC00082B28120FFF7CDFF054668B3237EFF2B3D
:102BD00004F1080214BF04F11801002100F0DDFC2B
:102BE000044610B90146284609E000231A46194652
:102BF000184605F0BDFD054630B90146204602B035
:102C0000BDE8704006F020B943680EB1B6F9A66180
:102C10005E8006492C602B4640F20222022004F01E
:102C2000A9FB01460028DED002B070BD0000FFFF06
:102C3000F7B5099D0C4611461A464FF6FB739D42A7
:102C400007464AD8009500238020FFF78AFF002816
:102C500046D022460021466800F09FFC044630B969
:102C600021480EF04BFA0025284603B0F0BD43681A
:102C70009DF82020DA7167B100231A4619461846DC
:102C800005F076FD30B34368B7F8A6215A8004609A
:102C90000446164B1868FFF75CFF032D89BFB06030
:102CA0000836043D0C3600239D42DAB20FD110499C
:102CB000234640F20222022004F05CFB0028D2D11D
:102CC0006FF008050021204606F0BEF8CCE7F2546C
:102CD0000133E9E76FF00B05F4E76FF01505C3E783
:102CE0006FF00B05C0E700BFC1350100405801007F
:102CF0000000FFFF2DE9F0471F46224B05461868EC
:102D000016460C46FFF725FF02218146284606F0AD
:102D1000EBFA03218246284606F0E6FA8046BAF12D
:102D2000000F2BD050B3DAF80400083002F031FA6B
:102D3000D8F80410032C01F1080C1CD98B68043C52
:102D4000A9EB03020C310B190C469C4202D14FF047
:102D5000FF310AE00134601A013814F801ECC0B206
:102D60008645F2D0A4EB0C0101393B462846B44617
:102D7000BDE8F047604761460022E4E76FF01500C8
:102D8000BDE8F08740580100F8B5048906460F46B3
:102D9000154600200DB1B54218D132897168002363
:102DA00009F03FFA04F13A030344B3F5803F24BF2E
:102DB000013080B2796820443A3000232022083163
:102DC00080B209F02EFAC04380B2F8BD23462A89AA
:102DD000696809F026FAAB682D6823449CB2D9E7EC
:102DE0002DE9F8430E4681460321304606F07CFA71
:102DF000044608B9FEF7C4F9022106F075FA074641
:102E00000028F7D0A368032B05D830460021BDE881
:102E1000F84306F019B8014632462046D4F804803B
:102E2000FFF7B2FF0028F0D198F80050892D0FD895
:102E3000842D11D8802D16D098F80010334640F21A
:102E40000122032004F096FA0028DED0BDE8F883C2
:102E50006335EDB2012DEFD8A36879684246484644
:102E600002F08AFBE8E72389796842464846FFF783
:102E700097FEE1E738B50D46144600211A460323B4
:102E800006F03CF928B1436800221D705C709A700E
:102E9000DA7038BD10B5044660B190F91030032BDC
:102EA0000BD10268FFF770FF50B1636840BA5880D9
:102EB000002010BD6FF00D00FBE76FF04C00F8E74D
:102EC0006FF00100F5E7002105F0BEBF08B5044929
:102ED00010220FF0B5FAB0FA80F0400908BD00BF2B
:102EE0000655010010B50A49082204460FF0A8FA59
:102EF00048B12378FF2B08D1607800F00F00831EC3
:102F00005842584110BD0120FCE70020FAE700BFFD
:102F1000F654010070B51E46CBB20021154602469C
:102F2000084605F025FC044620B92846FFF7CBFFEC
:102F3000204670BD43681E710560F9E738B50B681F
:102F40000C46054608B9FEF71BF94A68B0F8A61109
:102F5000518000224BB9B5F8E230934209D22046A5
:102F60007A21BDE8384005F06FBF99681B680A44B4
:102F7000F0E7284604F052FD60B10B49234640F2C9
:102F80000222012004F0F6F968B92046BDE8384075
:102F9000FFF799BFB5F9A60140F20222214604F0DD
:102FA000DEF90028F1DD38BD0000FFFF2DE9F84310
:102FB0000E46D1E9001405460A4600232ABB5BBA37
:102FC000A380A379FF2B02D119BB3B23A371E37923
:102FD00013B94DBB4023E37104F108073E491022A9
:102FE00038460FF02DFA04F11809804678BB4846A0
:102FF000FFF76CFF0246D0B11022414638460EF072
:103000000BFA0123E37534464FE0906812680344DD
:10301000D4E70B7C023BDBB2022BD6D82F4AD35C21
:10302000A371FF2BD3D1D0E795F8A431D3E749465C
:10303000284604F098FE03460028E4D000F1100270
:1030400053F8041B47F8041B9342F9D1DBE72846E9
:1030500004F009FD4846FFF739FF98B100242846DF
:1030600004F008FD002CCED00321304606F03CF9D8
:1030700028B143681B7803F0FD03852BC3D06FF0A4
:103080007C0022E03946284604F059FE0028E5DBA2
:103090002844047D04F01F04103C18BF0124DEE71F
:1030A00006F048F898B12060044694F91030022BDD
:1030B00002D120680028F3D13146204605F0B3FE46
:1030C000002807DA831C08BF0020BDE8F8836FF0F2
:1030D0000B00FAE70020F8E71655010054540100F0
:1030E00010B50C460AB9012010BDFFF75FFF00289C
:1030F000F9DA2046FFF7E7FE0020F5E72DE9F04377
:1031000090F91030013389B00646884624D14468CE
:103110000CB9FEF735F8B4F9020004F099FC054645
:103120003046277906F006F807F03F07014628B930
:10313000304609B0BDE8F043FFF7C5BE05F0AEFE6E
:10314000064696F91030022B09D01621304609B0F8
:10315000BDE8F04305F078BE00273D46F1E7706812
:103160005649102218300FF06BF90028EDD0304688
:1031700005F0E0FF04460028DAD04668337EFF2BD6
:103180004BD125B904F057FCB0B92046D1E7014630
:1031900042462846FFF7A4FFC8B10021084647F081
:1031A00040032246FFF7B6FE014680B1284609B02B
:1031B000BDE8F043FFF7C2BE411E204605F014FFF4
:1031C00047F04007284604F034FC054610B909B022
:1031D000BDE8F083B8F1000F11D0204605F0AAFF3A
:1031E00006460028D1D001462846FFF7DFFE00281A
:1031F00006DAB442C9D03046FFF765FEC5E7264679
:10320000002108463B463246FFF784FE014600286F
:10321000D8D02846FFF792FED4E71836304604F09F
:103220007EFE8542814606D03046FFF75BFE0028D1
:1032300018BF4FF000093046FFF748FE10B9B9F14A
:10324000000F15D0424621464846FFF749FF0028A7
:10325000BDD0204605F03AFE002896D118492346F5
:1032600040F20122022004F085F80028AFD18CE75B
:1032700001AB22462946304603F022F80028A6DB9F
:10328000BDF81C00C0F3041004F0E2FB0546002862
:103290003FF43FAF42462146FFF722FF002896D079
:1032A0009DF81E103B46224605A8FFF733FE014657
:1032B00000288CD02846FFF741FE88E7165501000C
:1032C0000000FFFF2DE98048102289B00DEB0200BD
:1032D00000210EF0A1F8944B0593944B94481B8861
:1032E000ADF81C300821FEF739FA04A9022005F0D8
:1032F00003FDDFF840B240F20523ADF80A3040F29A
:10330000022A6846FEF71DFABDF80210B1F5017FEA
:103310000BD8514500F2F78040F20123994219D0B1
:103320005145EED101980121E4E0A1F59F43403BD6
:103330009BB2152BE5D801229A4012EA0B0240F00D
:10334000EA80152B00F0EB80142BDAD1019802F003
:1033500059F8D6E7019D0DB9FDF712FF4FF0FF3187
:10336000284605F0C1FF0646A8B14368002BF3D0FC
:10337000B3F9020004F06CFB80466B683BB1AA68AD
:10338000272A04D91B7803F0F003602B05D02846C8
:10339000FFF799FDB5E78046EFE7284605F0CAFE3E
:1033A00004460028F3D00222282105F0E5FE002380
:1033B000237408B92046EBE74768FB790BB9742101
:1033C00070E0B988BD798BB249BA89B20BB93B2D8F
:1033D000F0D18442A36857D09942204654D205F0D8
:1033E00033FF07F118094846FFF770FD78B94846E2
:1033F000FFF778FD10B1B8F1000F57D1484604F03F
:103400008EFD8046B0FA80F04009002852D1292D67
:1034100073D03A2D73D0A5F11102534253419B0052
:1034200023742946022005F0E6FC002801DC3A2D31
:1034300067D10121204605F0D7FD01263A4994F9CC
:103440001000234640F2012203F094FF10B92046F9
:10345000FFF739FD86B13A2D03D10121204605F051
:10346000C3FD234640F201222946022003F082FFD9
:1034700010B92046FFF727FD3A2D7FF442AF2146D1
:103480004046FFF7ADFC3CE700238268134490F907
:103490001020022A02D000680028F6D1283B8B4277
:1034A0009FD21621204605F0CFFC2AE7484604F0BB
:1034B00036FDA7E707F10800FFF714FD00287FF4A9
:1034C00079AF4846FFF70EFD00287FF473AFFB7914
:1034D000013BDBB2FB71002B3FF471AF1EB13146F3
:1034E000204605F0DBFC204605F013FD00283FF4E4
:1034F00008AF0021FFF702FE03E7022390E7032352
:103500008EE700269AE76FF0850302A968460393C9
:10351000FEF7EEF8F5E6019802F004FDF1E60198F9
:10352000114601F0B1FFECE60000FFFFC8090020E2
:10353000340A0020EFFB06001FB50A4CB4F9003036
:103540005BB9094A0948CDE90132094A00924FF4B2
:1035500070710422FEF724FB2080B4F9000004B04F
:1035600010BD00BF300A0020DB350100740A0020C6
:10357000C532000008B5022105F0B6FE60B143680F
:103580000BB9FDF7FDFD8268272AFAD91A7802F0F7
:10359000F002602AF5D1184608BDF8B50C4617466A
:1035A00002232822002105F0A9FD064608B345683C
:1035B00005F10800FCB1214604F1100351F8042B79
:1035C00040F8042B9942F9D105F11800C7B13946EA
:1035D00007F1100351F8042B40F8042B9942F9D15C
:1035E000602200232A70FF226B70AB70EB70AA710F
:1035F000EB713046F8BD102221460DF00DFFE3E7D8
:10360000102239460DF008FF012385F82730E7E73F
:10361000F8B5044615460E4609B90020F8BDD1F8A4
:10362000E470FA04F9D5194908220EF009FF38B1FF
:103630002378FF2BF1D1637803F00F03022BECD139
:10364000FB0701D4FDF79CFD96F8A50105F11002DA
:1036500004F1080109F06EF810F0FF00DDD0A87643
:103660002B4604F1100254F8041B43F8041B944247
:10367000F9D1B6F8A6311B0103F4F87343F4806363
:1036800043F006032B830120C8E700BFF654010076
:103690002DE9F843064604F042FC044600285FD0BA
:1036A00004F0E1F9B4F9A611002001F0C7F90546CC
:1036B00070B1006800F0FAFD50B12B68B4F9A611A2
:1036C000B3F86820C2F3041291420CD0FDF758FD04
:1036D000002384F8DF30204602F0DAFB2046BDE804
:1036E000F84304F0C7B9083318463246214600F0C3
:1036F0000FFB3146204604F022FB0028E6DB2118B0
:103700000B7D03F01F02102A27D003F00702013AB5
:10371000012AE3D80133D4F8D8800B75050105F1EF
:10372000AC06104B1048B3F9009026443146FFF721
:1037300039F905F1160760190023C0E92B38274431
:1037400044F6CF73A0F8B630C0F8B870A0F8B490C3
:1037500031460548FFF7F0F8C0E74EF66028DDE790
:10376000BDE8F883300A0020340E00202DE9F3472D
:103770000D46DDE90AE81F46044608B9FDF700FDDD
:10378000D0F8E46016F4805F03D1042002B0BDE8F5
:10379000F08793F80190B9F1020FF6D192F800C0CA
:1037A000BCF1880F7BD1F607EFD590F800216B466E
:1037B00000F1F80103F03AFF0828E6D1DDE9000244
:1037C000B968FB689A4208BF8842DED1BB78012BFA
:1037D00041D0022B45D0CBBB05F118012046FE8815
:1037E00004F0ADFA00281FFA86F8CEDBB8F5807F2A
:1037F0002ED076BAB6B24EF660235E43A6F56A4680
:10380000603E22180501137D2C4823F01F0343F06E
:10381000100305F1AC081375A044294B4146B3F9D8
:1038200000A005F11609FFF7BDF860190023C0E9F3
:103830002B36A14444F6CF73A0F8B630C0F8B89048
:10384000A0F8B4A041461D48FFF776F8B8789DE788
:1038500047F23056D5E705F11801204604F0E0FCA8
:10386000F4E7B4F9A61105F1080001F0E7F80646FF
:10387000002883D001F0AAF8002001F0C9F828B987
:1038800084F8DF00204602F003FBDFE73368002BFB
:103890003FF474AF05F11800FFF7FAFED6E7B4075E
:1038A0007FF573AFBCF1870F7FF46FAFCDE90AE806
:1038B00002B0BDE8F04700F089B800BF340E002028
:1038C000300A0020F8B54378032B054602D00024C7
:1038D0002046F8BD083001F0E9FA04460028F6D089
:1038E0006B88AA88ED885BBA52BA9BB243EA02435E
:1038F000AAB23AB36DBAADB24EF660225543226910
:103900009A4209D32361134B1868436901331CD0D1
:103910000CF0FCFE284460610F4B1048B3F90070B6
:1039200004F118063146FFF73DF80023C4E90635D7
:1039300044F6CB7309486384646227843146FEF7FA
:10394000FBFFC5E742F21075D6E783685B689847CE
:10395000E0E700BF3C580100300A0020340E002090
:10396000F7B515468A784878412A34BF02230323E5
:10397000984227D1CC88CB78A7B264BA03F00F065F
:10398000A4B2C3F30013009308312346304605F078
:1039900031FD0DB9FDF7F4FBF108F64306F007061B
:1039A000012305F12902B340505CDBB247B920EA9C
:1039B000030353544EF6602303FB04F003B0F0BD41
:1039C0000343F6E74FF0FF30F8E700002DE9F0473A
:1039D00001F1080906460F4690464749102248461D
:1039E000DDE908A41D460EF02BFD00287FD0BAF1BA
:1039F000000F7CD05CB194F86A30DA0707D5082252
:103A0000A91804F118000EF01BFD002869D1EB88FD
:103A1000002B61D0534642463946304600F0A0FAAA
:103A2000B6F9A611484600F04BFE0446002860D0C7
:103A300000F1180705F108080822414638460EF043
:103A4000FFFC38B1B4F8683003F4C06313B101204F
:103A5000BDE8F087AB68A361D8F804307B60ED88DF
:103A6000264B2748B3F9008004F158073946FEF782
:103A700099FF6DBA0023A365ADB24EF660235D4396
:103A800044F6C973A4F862301D48E5656466A4F87D
:103A900060803946FEF750FFB4F868206FF04103AC
:103AA00002F007021341DB070CD50EB9FDF768FBE6
:103AB000134804F12801FEF775FF03222146304622
:103AC00000F034FAB4F8683023F4C06343F4806340
:103AD000A4F868300020BBE74CB1204600F04EFE51
:103AE000F8E7B4F8683003F4C063002BAFD10420CA
:103AF000AEE70220ACE700BF16550100300A0020F7
:103B0000340E002073B5069E1C460BB9FDF738FB3A
:103B10000025CDE90065FFF729FEC31EDBB2012BAE
:103B20000AD9E18849BA2B4604F1080289B202B0E9
:103B3000BDE8704007F015BA284602B070BD426972
:103B4000013201D00CF0E2BD83685B6818470000C9
:103B500070B5044604F0E3F9064608B9FDF710FB1A
:103B600000F05EFD204601F0A1F9044620B900F006
:103B70005DFD6FF00B0070BD1A4B1868FFF7DFFF9B
:103B8000194B034463610025284601F089F8054676
:103B9000A8B929340126E8B205F00AFC40B1EA08C8
:103BA000EB43A15C03F0070306FA03F30B43A354B2
:103BB0000135102DEFD100F039FD0020DBE795F83D
:103BC00034305B07E0D52B68B6F9A621B3F868302E
:103BD000C3F304139A42D7D12946204601F0BEF917
:103BE000D2E700BF3C5801000046C32310B504468D
:103BF00000F016FD204601F077F9BDE8104000F016
:103C000015BD0000F8B50468124F06460D4600F0D9
:103C100007FD204601F0E0F9044698B1102239462C
:103C20000EF00EFC0028F4D023462A4604F11001C1
:103C300053F8040B42F8040B8B42F9D123692B6132
:103C400063696B6100F0F2FC201E346018BF012034
:103C5000F8BD00BF1655010070B58AB00146282294
:103C60000446684608F01CFC094B05461868D4E970
:103C70000464FFF764FF3246241A294605484EF6CD
:103C80006023B4FBF3F30EF019FC0AB070BD00BF63
:103C90003C580100E03501002DE9F843DFF834809D
:103CA0001F460B4B144605460E4640461146B3F9D7
:103CB0000090FEF777FE0023C4E900376681E560D7
:103CC000A4F8089021464046BDE8F843FEF734BE0C
:103CD000300A0020340E002038B5154604461A4636
:103CE00091B190F86C30934204D0023120300EF044
:103CF000A7FB58B9B4F86810B5F9A631C1F304119F
:103D0000C81A18BF012038BD0846FCE70120FAE7B1
:103D1000F0B5074685B015461E460C4609B9FDF7B5
:103D20002FFAB1F9A611002000F088FE4DB3D4F8A7
:103D3000E430DA0425D520B30068B4F9A621B0F840
:103D40006830C3F304139A421BD13146083008F09F
:103D50003CFBB0B1D4F8E430DB0710D594F8002177
:103D600002AB04F1F801204603F060FC082806D1FC
:103D7000002302AA0F21184607F0F3F810B905B086
:103D8000F0BD0020009033462A462146384603F015
:103D90000DF9F4E770B50446B0F86800C0F30410FC
:103DA0000E4603F055FE054608B9FDF7E9F903F0A4
:103DB0005AFE16B1002384F86B3004F1080318464C
:103DC00000222946FFF7A4FFD5F8D83004F12802D5
:103DD00044F6C0712046FFF75FFF284603F04AFE15
:103DE00094F86B30013384F86B3070BD2DE9F043EB
:103DF000B0F8683013F0070585B0044688467AD0DD
:103E00006A1E012A72D8C3F3041003F021FE44F69F
:103E1000C1710746204601F053F981460FB9FDF7FD
:103E2000AFF9384603F01FFED7F8D860B14557D92F
:103E3000B8F1000F02D0002384F86B30012D28D197
:103E400094F86B3040F2DC51023B4FF4FA704FFAB9
:103E500083F95FFA83F80AF0FFF8A0F5FA73B3F577
:103E60007A7F8446DBD2B8F1110FD8D805FA09F56C
:103E7000A5FB0656A5FB000100230CFB06114FF421
:103E80007A720CF0D9FD4EF66023984228BF18468E
:103E9000064640F2FF220023CDE900234FF0807355
:103EA0000293FF238DF80C30637D8DF80D30E38A8B
:103EB000ADF80E3000226B46394604F10800FFF7DA
:103EC00027FF334604F1280244F6C1712046FFF76C
:103ED000E3FE94F86B30122B9CBF013384F86B30F7
:103EE000384605B0BDE8F04303F0C4BD05B0BDE8F9
:103EF000F043FFF74FBF05B0BDE8F08310B50446AF
:103F0000D0F8BC0000EB500140080AF0A5F804F11D
:103F10007802C4F8C000044B204644F6CE71BDE8D8
:103F20001040FFF7B9BE00BF00DD6D00B1F868308A
:103F300023F00703134370B50446A1F868300D461B
:103F4000164603F090FD34B1A36F23B1324605F15C
:103F50000801032098472046BDE8704003F08ABD61
:103F60002DE9F84391469846054608B9FDF708F94A
:103F700001F10807B0F9A611384600F0A1FB04468C
:103F800028B190F86A3013F0010F08BF0024D5F86B
:103F9000E430DA07EAD595F8A501414608F0F4FBCC
:103FA000061E09DB54B9B5F9A6110322384600F004
:103FB00027FC0446002842D1BDE8F88394F86C3011
:103FC000B34207D1324608F1020104F120000EF09D
:103FD00037FA98B1D5F8E42041F20203934303D1B4
:103FE00099F80030852B09D01E4804F12801FEF70E
:103FF000D9FC032221462846FFF798FF94F86A303F
:10400000DB07D9D599F80030862B23D1B4F8682086
:1040100042F00802A4F86820D5F8E41041F2020248
:104020008A4301D1852BC7D084F86C60324608F1F1
:10403000020104F12000BDE8F8430DF02BBE99F811
:104040000030872B02BFB0F8683023F00803A0F8D7
:104050006830D3E7872BDFD0B4F8682022F008025D
:10406000D8E700BF340E002038B50446B0F8680029
:1040700000F00703042B12D0062B12D10325C0F346
:10408000041003F0E5FC2A462146FFF74FFF052DFB
:1040900007D120460121BDE83840FFF7A7BE05251E
:1040A000EDE738BD70B505460C460622FFF73EFF2A
:1040B000D5F8D43004F12802204644F6C771BDE893
:1040C0007040FFF7E9BD00002DE9F04705461646B0
:1040D0001F460C4609B9FDF753F80028FBD06BB119
:1040E000D0F8E430D907F6D590F8A501394608F0A4
:1040F0004BFBB0F1000802DABDE8F0879846B4F84F
:10410000689009F00709B9F1020F0FD096F800A0E6
:10411000BAF1880F02D133799A0607D443462A466A
:1041200039462046FFF7D8FD00286ED0002F4FD02B
:1041300084F86C804246B91C04F120000DF0AAFD01
:104140003378882B02D133795B0644D4384804F1A4
:104150002801FEF727FC032221462846FFF7E6FE4A
:104160003378882B0DD13279900602D4B9F1020F41
:1041700007D11106B4F8683032D423F00803A4F84C
:104180006830DFF8B0A0204601F07CFF814650BBCC
:104190003378882BB0D133795A06ADD4B4F868306F
:1041A00003F00703062BA7D143462A46394620468B
:1041B000FFF792FD00289FD004F128011C48FEF76C
:1041C000F1FB214628460322BDE8F047FFF7AEBECB
:1041D00084F86C70B4E721462846FFF763FFBFE719
:1041E00043F00803CBE7D9F8043040F202225146ED
:1041F000022003F0BFF820B9D9F80400092104F027
:1042000023FE0023C9F80430BDE7BAF1880F7FF41C
:1042100073AFB9F1000F3FF46FAF33795B067FF5F1
:104220006BAF21462846BDE8F047FFF73BBF00BF14
:10423000340E00200000FFFF38B505460C46084646
:1042400002F023F9214628460122BDE83840FFF755
:104250006DBEB0F8682002F00703022B10B50446CB
:1042600004D0052B0AD0012B13D010BD90F86B3071
:10427000022B15D9BDE8104000F080BA90F86B30E1
:10428000022B06D9C2F3041003F0E2FB2146FFF72C
:10429000D3FFB4F8683013F4C06F01D01B07E4D526
:1042A00020460021BDE81040FFF7A0BDB0F868002F
:1042B00000F007000138012894BF0020012070475A
:1042C00008B5044910220EF0BBF8B0FA80F040099E
:1042D00008BD00BF165501002DE9F843089D894629
:1042E00014461F46804688B181B1FFF7E9FF0646B4
:1042F000304B9D429ABF4FF47A735D434FF0FF35C8
:104300000FB12EB10CBB6FF0150412E00126EFE7E0
:1043100000F086F94B46802B204628BF802342467A
:10432000394600F00DFC044630B96FF00B0400F084
:104330007DF92046BDE8F88390F8343043F010034F
:1043400080F834301DBB0024F1E700F069F9204605
:10435000394600F00BFB04460028E6D0164B1860E7
:10436000002DF0D0154B061D31461548B3F90070ED
:10437000FEF718FB0023C4E9013544F6CD73E38151
:104380002461A78131460E48FEF7D6FADBE70B4BD6
:1043900000F1240739460A48B3F90080FEF702FB12
:1043A00044F6D073C4E90965E3852463A4F82C803E
:1043B0003946E8E7378941009C170020300A002081
:1043C000340E002070B505460E4600F029F92DB1D7
:1043D00026B12846FFF774FF044640B100F050FBB9
:1043E00008B100F0F3FABDE8704000F01FB92046B4
:1043F00000F056FC04460028F5D094F83530B3425E
:10440000F5D12946201D07F0F6FFB042EFD307484B
:1044100004F12401FEF7C6FA94F8343023F01003B7
:1044200084F83430204600F011FCDCE7340E002024
:104430002DE9F04106460F469846154602B10BB9E4
:10444000FCF79EFE106838B92C68204600F028FC66
:104450000446F0B9286003E000F036FC0028F3D1F0
:104460002C68204600F0D4FA044670B12068002879
:10447000F7D02FB1B0F86830C3F304139F42F0D1E6
:1044800056BB4146204600F025FB201E18BF0120E8
:1044900018E094F83430002BD2D020680028D4D013
:1044A000042B02D1E38EDB07CFD52FB1B0F86830F3
:1044B000C3F304139F42C8D13EB92046414600F0E1
:1044C00011FC01202C60BDE8F0813146083007F076
:1044D0007CFF0028F1D1B8E73146083007F075FFBE
:1044E0000028BED0CDE7000030B590F820308BB06A
:1044F000044613B1FFF7E4FEF8B194F82110154A11
:10450000154B164800290CBF114619460DF0D6FF71
:1045100004F110052846FFF7D3FE40B929462822AA
:10452000684607F0BDFF01460D480DF0C7FF618CDE
:104530000C480DF0C3FF0BB030BD21462822684661
:1045400007F0AEFF94F82020014607480DF0B6FFB3
:10455000DEE700BFB7370100F8350100FA3501008A
:104560000C3601001436010005360100CB08C943A2
:10457000C25C01F0070101238B401A4214BF0120E5
:104580000020704730F9081FFDF756B808B50449F8
:1045900010220DF055FFB0FA80F0400908BD00BFB1
:1045A00016550100054A106838B10368984219BFD2
:1045B0001A680260002111601846704798170020A1
:1045C00090F86A1011B970220CF026BF704770B5D0
:1045D000044610460E461546FFF7F2FF54B1234637
:1045E00005F1080204F1100153F8040B42F8040B22
:1045F0008B42F9D11F2E01D9FCF7C2FDB5F8683006
:1046000023F4F87343EA0611A5F8681070BD0000A2
:1046100001490248FEF7E6B985450000340E002046
:104620000148FCF72BBE00BF500E00200148FCF7EC
:1046300029BE00BF500E00202DE9F041154C064662
:104640000F4604F5E0680025B4F86830C3F304139E
:104650009F4211D025B994F86A30002B08BF254637
:104660007034A045F0D125B12A4639463046FFF7CF
:10467000AEFF2846BDE8F08104F1080136B90846CE
:10468000FFF784FF0028E5D02546EDE7304607F028
:104690009CFEF7E79810002028B17030064B984236
:1046A00003D3002070470548F8E790F86A20002AF5
:1046B000F8D17030F3E700BF981700209810002061
:1046C0002DE9F0418846074608B9FCF759FD124C20
:1046D0000026254694F86A3043B97036B6F5E06F87
:1046E00004F17004F6D10020BDE8F081B4F8683020
:1046F00013F4F87FC3F3041204D0B8F1000F01D013
:104700009045EAD1394604F1080007F05EFE002822
:10471000E3D0A819E8E700BF981000202DE9F04188
:104720000446B0F86800134DC0F3041003F090F98C
:10473000B4F86830D0F8D48023F0070343F00603C0
:10474000A4F8683004F128060B4B31462846B3F92B
:104750000070FEF727F90023C4E90A3844F6C7734E
:1047600063866463278631462846BDE8F041FEF73C
:10477000E3B800BF340E0020300A002010B590F8D6
:104780006A3023F0010380F86A30044600F13801F2
:104790001948FEF707F9184804F12801FEF702F955
:1047A000154804F14801FEF7FDF804F158011248DC
:1047B000FEF7F8F8204601F068FE10490A6822B1B9
:1047C00013689C4206D1FFF7EDFE2046BDE810407D
:1047D000FFF7F6BE13461B681868844202D09A425F
:1047E000F9D1F2E7002BF0D022681A600A689442EF
:1047F00008BF0B60E9E700BF340E002098170020C7
:104800002DE9F8438846074608B9FCF7B9FC02F0E1
:1048100007052B1F022BF8D9FFF70EFF00283CD10C
:10482000FFF7C0FE814678B32A4E044694F86A30FA
:10483000012B2CD8B4F8683003F4C0633BBB20468E
:10484000FFF79CFF384622464146FFF7C0FEB4F80A
:1048500068302B43A4F86830012384F86A3020467E
:104860003368B3B11B68236033681C60346060B97F
:10487000FFF798FE81450446D8D133685BB11B68C9
:1048800003603368186034600020BDE8F8830020BE
:10489000E6E72460EAE72060F5E790F86A30DA0797
:1048A0000AD4B0F8682022F00702154343F0010350
:1048B000A0F8685080F86A300368002BE5D1054BFA
:1048C0001A682AB1126802601A6810601860DCE782
:1048D0000060FBE798170020F8B50C46054600B1CC
:1048E00009B9FCF74DFC0A4600F1080300F1180174
:1048F00053F8040B42F8040B8B42F9D1B5F86870F9
:1049000019492783082220460DF09AFD04F110066C
:1049100038B12378FF2B1DD1637803F00F03022BEE
:1049200018D1C7F3041003F093F80028D9D0D0F8B9
:10493000E430D9040ED59A070CD4DB0705F1100139
:10494000CFD590F8A501324607F0F4FE002801DB30
:10495000A076F8BD95F86C20A27605F120013046CE
:10496000BDE8F8400DF096B9F6540100F8B5164EC2
:10497000346807460D46A4B1B4F86830C3F3041395
:1049800099420CD104F1080107F01FFD38B194F8E9
:104990006A3043F0080384F86A300B48F8BD002001
:1049A000FCE7FFF749FE024630600028F7D02946B1
:1049B0003846FFF70CFE326892F86A3043F008037D
:1049C00082F86A30E9E700BF840E0020036810B562
:1049D00004468BB1011D0C48FDF7E4FF206890F8F8
:1049E0006A3023F0080380F86A30FFF7E9FD1422EB
:1049F000002120460CF010FD044B1A68A24204BFAF
:104A000000221A6010BD00BF340E00209C17002049
:104A100028B11430074A904203D30020704706485B
:104A2000F8E703681BB193F86A30002BF6D1143015
:104A3000F1E700BF980E0020840E002010B520B1D1
:104A40000E4B1C682CB9002010E00029F8D1FCF7AF
:104A500097FB29B1B4F86830C3F304139942F2D13B
:104A600028B994F86A301B07F1D5044810BD04F149
:104A7000080107F0AAFC0028E5D0F2E7840E002028
:104A800010B5134C2168B9B10B68B3F8683003F066
:104A90000703013B012B0DD80020FFF7B9FF68B9D0
:104AA0000846FFF7B5FF01B110B90020FFF7B0FFCE
:104AB00020600146084610BD0846EEE70368B3F8DB
:104AC000683003F00703013B012BF1D8E5E700BF95
:104AD0009C17002038B50C46054610B1036803B199
:104AE00009B9FCF74DFB1022002120460CF094FC84
:104AF000124A12680023AA4284F8203009D12B6898
:104B0000B3F8683003F00703013B012B94BF002387
:104B1000012384F821302B6804F1100103F108020D
:104B2000183352F8040B41F8040B9A42F9D12B6860
:104B3000B3F86830C3F30413638438BD9C170020B6
:104B40002DE9F84F05468A461F4690463AB1104671
:104B5000FFF71CFD044610B97B1E7F2B01D9FCF723
:104B60000FFBDFF8E4B081469BF83420DBF80060EF
:104B7000DAB9002C08BF5C4609F10109B9F1080F48
:104B80000BF1400BF0D174B12368002B46D1514694
:104B90002846FFF751FD0146206000283ED1402203
:104BA00020460CF039FC00242CE09BF8352097427D
:104BB000E2D141460BF1040007F01DFC8742DBD82F
:104BC000002ECCD0B6F86820C2F304129245D3D19F
:104BD00008363046FFF7DAFCB8B13DB105F11002F6
:104BE00055F8041B46F8041B9542F9D1164B4FEAC1
:104BF00089195C4653F8091091F86A2042F0400286
:104C000081F86A202046BDE8F88F002DB4D03146E7
:104C1000284607F0DAFB0028AED0DFE722685146CD
:104C20002846FFF7D4FC2046FFB250F8042B92F838
:104C30006A3043F0400382F86A3041463A4607F052
:104C4000F9FB84F83570DDE7980E002010B590F878
:104C500034300446FBB90068D0B920464022BDE894
:104C6000104000210CF0D8BB4033013A04D09C42E4
:104C7000FAD019688842F7D1074A9342EDD390F8E9
:104C80006A3023F0400380F86A30FFF799FCE4E7CC
:104C9000024B0922E9E710BD98100020980E002071
:104CA00028B14030064B984203D300207047054896
:104CB000F8E790F83420002AF8D14030F3E700BF3D
:104CC00098100020980E0020054B984206D303F55B
:104CD000007398422CBF00200120704700207047CD
:104CE000980E002038B50B4610B1026802B109B920
:104CF000FCF746FA021D00F1140452F8045B41F877
:104D0000045BA242F9D190F8352083F820200021DD
:104D100083F821100268B2F86840C4F304145C847C
:104D200090F83400042803F1100004D1BDE83840A5
:104D300010220CF071BB02F10803183253F8041B67
:104D400040F8041B9342F9D138BD00002DE9F0472B
:104D50000F469146064600B10AB9FCF711FA1F4DFD
:104D60000024A04605F5007A95F834305BB1314651
:104D7000281D07F040FB804505D295F83530834269
:104D80009CBF80462C4640355545EDD134B194F852
:104D90003430042B1CD1E38EDB0719D4FFF770FEEF
:104DA00088B9ACB9204602F044FE044618B96FF049
:104DB0007100BDE8F087A36F002BF3D03A4631466F
:104DC00001209847EEE74946FFF784FE0020F0E710
:104DD00049462046FFF786FFF8E700BF980E0020FF
:104DE00010B5044600F114011148FDF7DBFD94F8FD
:104DF000343023F0040384F834302046FFF726FFD4
:104E00000C4BE41AB4F5E07F10D8A4110A482146EF
:104E1000FFF7ACFB50B1094984F0070491F8283042
:104E20000122A24023EA020381F8283010BD00BF0E
:104E3000340E0020980E0020800E0020580E002016
:104E40002DE9F843044600F114011748FDF7AAFDC7
:104E50002368B3F86800C0F3041002F0F9FD0546BA
:104E6000D8B100F1160604F104094946304694F819
:104E7000357007F0C0FA05F12608874249464046DA
:104E800094BF94F83570002607F0B5FA874209D927
:104E90001EB13146284603F0C3F92046BDE8F84369
:104EA000FFF79EBF4646F4E7340E002038B50446AF
:104EB00008B9FCF765F90B4907F087FA78B9094892
:104EC000FFF764FB60B12346064C03F11005186838
:104ED0005968224603C20833AB421446F7D1014851
:104EE00038BD00BF580E002070B558B3174907F001
:104EF0006CFA48B3164D174E002421463046FFF792
:104F000035FBD8B90134082C05F14005F5D1002452
:104F1000114E254621463046FFF728FB48B901349B
:104F2000102CF7D1BDE8704008482C2200210CF06D
:104F300073BAE0B204F03CFA0574F0E72846FFF7D4
:104F40004FFFDFE7FCF71CF970BD00BF580E0020D3
:104F5000980E0020800E0020810E002008B520B1A0
:104F600019B191F834305B0701D4FCF709F9084B0B
:104F7000C91AB1F5E07F09D8891190F8282081F08D
:104F8000070101238B40134380F8283008BD00BF80
:104F9000980E002070B50546084621B10D4BCB1A7E
:104FA000B3F5E07F05D80B4E2835FFF779FE0446B0
:104FB00010B90024204670BD94F834305B0706D544
:104FC000A11B89112846FFF7D1FA0028F2D120460B
:104FD000EBE700BF980E002038B538B100F12C0483
:104FE000074DAC4204D30024204638BD054CF7E7FA
:104FF0002046FFF7CBFA0028F6D02C34F1E700BFAB
:10500000840E0020580E00202DE9F8431F46134659
:105010000A4601460020089EFFF792FD044600283C
:105020003DD090F83430B74243F0040380F8343078
:1050300001D2FCF7A5F807EA0605681C36D01D4B1F
:105040001868436901332DD00BF060FB711C0546D5
:105050001CD0194B1948B3F9009004F114084146CB
:10506000FDF7A0FC0023C4E9053644F6CC731348D1
:10507000E3832462A4F81C904146FDF75DFCB21C5A
:1050800004D07319013308BF01362E44FB1C0FD81E
:105090007B19013308BF01373D44C4E90E56204651
:1050A000BDE8F88383685B689847CFE72E46F4E74E
:1050B0003D46F2E73C580100300A0020340E002043
:1050C00010B50A4B9B690246002013B94FF0FF3020
:1050D00010BD5C6820445C898C4204D1002AF7D062
:1050E000DC689442F4D01B68EFE700BF340E002068
:1050F000F8B50F4616461D46044608B9FCF740F8B9
:10510000082BFBD84B1E1F2BF8D8FFF789FA204637
:1051100000223946FFF774FB044620B9FFF786FAF0
:105120006FF00B00F8BD2EB125B12A463146203074
:105130000CF0B0FDB4F8683084F86C5023F4C06310
:1051400023F0070343F4C063A4F86830FFF76EFA56
:105150000020E7E770B505460E46FFF761FA002428
:105160002046FFF799FA044678B1B4F86830C3F3E3
:1051700004139E42F4D104F10801284607F025F9F2
:105180000028EDD02046FFF7F9FABDE87040FFF7A0
:105190004DBA38B50546FFF743FA00242046FFF71D
:1051A0007BFA044688B194F86A30DA07F6D504F140
:1051B0000801284607F009F90028EFD0B4F8683054
:1051C0005B0702D02046FFF7A9FABDE83840FFF799
:1051D0002DBAF8B50C6806460D461746FFF720FABB
:1051E0002046FFF759FA044670B194F86A30DB079D
:1051F000F6D52EB1B4F86830C3F304139E42EFD154
:1052000039462046FFF768FB2C60FFF70FFA286845
:10521000003818BF0120F8BD10B58AB00146044619
:105220002822684607F03CF9014619480DF046F976
:10523000238B13F4F87FC3F3041102D015480DF04B
:105240003DF9A17E6A4604F1100007F0D5FA014647
:1052500011480DF033F9238B1B0702D50F480DF0D1
:105260002DF9238B0E4A0F4803F0070352F8231041
:105270000DF024F9238B0C4A0A48C3F3412352F85A
:1052800023100DF01BF909480BF038FF0AB010BDD0
:10529000DA4801001D3601002636010031360100D2
:1052A000685401001A4A010058540100B737010040
:1052B0002DE9F843DFF834801F460B4B14460546B2
:1052C0000E4640461146B3F90090FDF76BFB0023F4
:1052D000C4E900376681E560A4F80890214640469D
:1052E000BDE8F843FDF728BB300A0020340E00204B
:1052F00010B50A49082204460DF0A2F848B12378F7
:10530000FF2B08D1607800F00F00831E58425841EF
:1053100010BD0120FCE70020FAE700BFF6540100B1
:1053200008B5044910220DF08BF8B0FA80F040095E
:1053300008BD00BF16550100002103F085BD08B56A
:10534000FFF7BEF928B190F86A3013F0010F08BFDB
:10535000002008BD044B18684369013301D00BF0ED
:10536000D5B983685B6818473C58010038B50568B3
:105370005DB195F86A301B0707D5FFF727FB0024BE
:105380002046FFF78DFC044600B938BD23689D42D6
:10539000F6D1FFF75BFCF3E741F2020383430CBF56
:1053A00001200020704708B510F4007304D0FFF707
:1053B000F3FF00F0010008BD1846FAE7D0F8E4203A
:1053C00008B51046FFF7EFFF20B9530704D5C2F325
:1053D000003008BD0020FCE70120FAE738B5084C92
:1053E000FFF71EF9A16929B10D682046FDF7DAFA29
:1053F0002946F8E7FFF70CF9BDE83840FFF716B982
:10540000340E002038B5044608B9FBF7B9FE02F0A7
:105410002AFB47F23053C4F8D03004F114000025C1
:10542000FEF76CFD154984F8DF5084F8E050204603
:1054300002F08CFD1249204602F088FD20461149F9
:10544000402201F05FFB2046FFF7B8FF88B14FF420
:105450007A71284608F000FE04F19C02034644F6E7
:10546000C3712046FFF724FF2046BDE8384002F014
:1054700001BB204601F090FAF6E700BFC6540100D8
:10548000D6540100F654010038B50D46044608B95B
:10549000FBF776FE02F0E7FA1E4804F18C01FDF7F7
:1054A00081FA2046FFF78AFF28B31A4804F19C01CD
:1054B000FDF778FA04F116052846FFF719FF18B131
:1054C0002946204602F0ACFE04F126052846FFF7E7
:1054D0000FFF18B12946204602F0A2FE20460E49D1
:1054E00002F042FE20460D4902F03EFE2046BDE895
:1054F000384002F0BFBA074804F17C01FDF752FAC8
:10550000002DD7D0FD2384F8DE30204601F044FA88
:10551000D0E700BF340E0020D6540100C65401006D
:1055200010B5044608B9FBF72BFE02F09CFA4FF4C5
:105530007A73C4F8D83094F8E13043F0010384F86A
:10554000E1304FF4E163A4F8DC304FF0FF33C4F8EE
:10555000CC30002384F8DE30D4F8E43043F4007318
:1055600043F002032046C4F8E43002F07DF8204600
:10557000BDE8104002F07EBA2DE9F04F8DB09346A1
:1055800003919946044608B9FBF7FAFD02F06BFA5D
:10559000FFF746F89BF80030853B032B7FD8DFE808
:1055A00013F0040097006D029F03D4F8E4309807CD
:1055B00075D5039BDB79FF2B71D19BF80130002B54
:1055C0006DD1B9F1070F6AD9039BA9F108080BF156
:1055D00008070833BA464546049345BB039B03F1CD
:1055E00008063046FFF79CFE40B9B8F1000F30D1F5
:1055F000B4F9A6113046FFF7A2FE0546D4F8E43010
:1056000013F480505AD14FF4FA7108F025FD44F696
:10561000C67106462046FFF753FD86423FD85DB36C
:10562000334605F1480244F6C571284635E0A945E0
:1056300035D39AF8016096B39AF80030012B03D164
:105640000498FFF76DFE50BBA5EBC6050AEBC60A32
:10565000C3E73B78012B09D1D4F8E430D90405D451
:1056600003993B465A462046FEF77AFC7B78A8EB26
:10567000C30807EBC307B8E7FFF76CFED4F8CC30DC
:10568000B44A934213D940F6B733984213D93346FC
:1056900004F17C0244F6C6712046FFF709FEFEF7CE
:1056A000C5FF20460DB0BDE8F04F02F0E3B9A0F60B
:1056B000B8308342EBD206F6B836E8E703F00603CB
:1056C000062BECD100223146204601F019F9E6E71D
:1056D000039B083318460693FFF70AFE0028DED026
:1056E000039BDB79FF2BDAD19BF80130002BD6D15D
:1056F000B9F10F0FD3D9D4F8E430DA0407D4BBF8EA
:1057000006305BBA9BB242F228329342C7D8A9F165
:10571000100305930BF11005059A2B460027002A6C
:1057200040F09C80002F00F0AF803846FEF7CAF8AA
:105730000028B4D0FE88B3B2002B00F0A28076BA65
:10574000B6B24EF660235E430746D4F8E400FFF796
:105750002AFEB4F9A611002840F09980BBF8068013
:105760001FFA88F3002B00F092800698FFF7FEF8EE
:105770000490002893D098FA98F84FF47A731FFA9F
:1057800088F803FB08F802464346043244F6CD711C
:10579000FFF78EFD464528BF46469BF804300BB107
:1057A00084F8A431DBF808309BB193FA83F8D4F87D
:1057B000D03098450DD02046674B04F18C0244F65A
:1057C000CE71FFF775FDC4F8D08004F11400FEF728
:1057D00095FBDBF80C3013B11BBAC4F8D830049B2E
:1057E000B3B1D4F8E400C30412D5FFF7DCFD78B9F7
:1057F000237D13F0EF0F03D004F11600FDF748FFEF
:10580000637D13F0EF0F03D004F12600FDF740FF96
:10581000059B002B44D1049B002B3FF440AFD4F8F0
:10582000E400FFF7C0FD20B94C4804F19C01FDF7EE
:10583000B9F8D4F8E400C5047FF531AFFFF7B3FD44
:1058400000287FF42CAF204601F00AF9B30803EBDF
:10585000430304F19C0244F6C3711DE79145FFF434
:105860001EAF597800293FF41AAF1878232803D1C6
:10587000002F7FF414AF1F46A2EBC10203EBC1035C
:105880004DE742F210765CE74FF0FF365DE7069891
:10589000FFF7D4F808B1FFF769FD002304937CE714
:1058A0002B78052B20D00BD8012B16D0032B44D0FE
:1058B0006B78059AA2EBC302059205EBC305A7E737
:1058C000182B20D0222BF3D13A4629465846FEF712
:1058D00047F8864228BF0646EAE703992B465A4610
:1058E0002046FEF73DFBE3E76B78012BE0D19BF808
:1058F0000030862BDCD16B681BBAB3F5A06FD7D311
:10590000A4F8E230D4E705F108084046FFF7F0FCC0
:105910000028CDD16A68A9781AB94046FEF752FD31
:10592000C6E7B2F1FF3F18BF10BAB4F9A631069A24
:1059300000904046FEF7D0FCBAE76B680893AB686E
:1059400009936B78042B0BD04FF0FF339E4228BF96
:105950001E46ADE747F4FFFF00DD6D00340E00206A
:105960009BF80030862BEFD105F110094846FFF770
:10597000BFFC0028E8D1089B93FA83FA099B93FAAD
:1059800083F8C245E0D3D4F8E410EA78CB0401D51B
:105990001006D9D4510604D5AA784946204601F00C
:1059A000B1F8EA783F2A07D8D4F8E400FFF7F4FC0E
:1059B0000028C9D0002FC7D0AB7807936A68E2B936
:1059C000904613E098F834305A070FD598F83530E0
:1059D000079A93420AD1494608F1040006F00BFDEC
:1059E000079B984202D34046FFF72AFA4046FFF74A
:1059F00057F980460028E5D1A6E7089B013308D077
:105A0000B44A92459ABF4FF47A7202FB0AFA6FF0D9
:105A1000010A099B013308D0AE4A90459ABF4FF462
:105A20007A7202FB08F86FF00108CDF80080494651
:105A3000079AB4F9A6015346FFF7E6FA8146002813
:105A400082D01FB101463846FFF788FA95F9032046
:105A5000E978002ABEBFB9F8362042F00102A9F861
:105A600036204B0642BFB9F8362042F00202A9F8B0
:105A70003620C245534628BF434667E7039BDB7980
:105A8000FF2B7FF40CAE9BF80130002B7FF407AEA8
:105A9000B9F1170F7FF603AE9BF80830FF2B3FF4E8
:105AA000FEAD039B03F108073846FFF739FC48B108
:105AB000039B89490D2203F118000CF0C1FC00285A
:105AC0007FF4EDAD0BF108052946204602F037F9C9
:105AD000031E0493FFF6E3ADA9F118080BF11806B5
:105AE00032464346D3B9284602F019FA814690B3AC
:105AF00001F0B9FF2946484602F021F9B0F1000A49
:105B000026DB09EB0A031B7D590721D03846FFF736
:105B100007FC78B9484601F0ADFFC0E59945FFF4B0
:105B2000BEAD517800293FF4BAADA3EBC10302EB3F
:105B3000C102D7E709EB0A11AC316848FCF732FF24
:105B4000484601F097FF2946484601F027F8A6E5A8
:105B5000484601F08FFF3846FFF7E2FB38B10023DB
:105B600000933A462146284601F07CFA97E5D4F89E
:105B7000E430DA0705D4B4F9A61103223846FEF75B
:105B80003FFE4FF0000AD146B8F1000F20D1BAF124
:105B9000000F37D0B9F1000F3DD00399CDF8009038
:105BA00053465A462046FDF7ADFF064600283FF40F
:105BB00076AD049B23441B7D9B0640F18380B4F9A2
:105BC000A6112846FFF7BBFB804630BB304653E0AA
:105BD0003378012B08D0212B08BFB2467378A8EB8D
:105BE000C30806EBC306CFE7D4F8E400FFF7D4FB05
:105BF00030B9039933465A462046FEF7B1F9EDE72E
:105C0000B146EBE7B9F1000F05D003994B465A4670
:105C10002046FEF7A5F90026CBE7D4F8E43013F0D0
:105C2000020F039B1B7E14BF4FF0C0094FF04009C9
:105C3000FF2B28D194F800A104F1F80152460AA8DC
:105C40000CF028F8BAF1000F19D0324651460AA8D4
:105C500001F055F90028B9D0064628463246494693
:105C600001F0D0F805460028B0D03A460021FDF7F3
:105C700094FC064650B92846FFF75EFB0FE549F055
:105C800020093046E8E749F02009E6E74368FF22AB
:105C9000DA7100231A461946184602F069FD0546D6
:105CA000002893D04368B4F8A6215A804FF47A7143
:105CB0000660002008F0D0F908F13802034644F6E7
:105CC000C271B2E4039B1B7E0096A3F1FF067342F0
:105CD000734146E737894100E6540100340E002045
:105CE000039BDF79FF2F7FF4DAAC9BF80130002BA8
:105CF0007FF4D5ACB9F1170F7FF6D1AC9BF8083023
:105D0000FF2B3FF4CCAC039B1B7EFF2B04D19BF8F5
:105D1000043058063FF5C3ACA9F118080BF118067A
:105D200032464346FBB90BF10809484602F0F7F842
:105D3000054638B301F097FE4946284601F0FFFFBB
:105D400000281CDB2B181B7D590718D005EB001011
:105D500000F1AC013548FCF725FE284601F08AFE2B
:105D600049462846F1E69945FFF499AC5178002957
:105D70003FF495ACA3EBC10302EBC102D2E7284686
:105D800001F078FEB4F9A6114846FFF7D8FA0546A7
:105D900000283FF484AC4FF0000909E03378022B6F
:105DA00031D0212B38D07378A8EBC30806EBC3069B
:105DB000B8F1000FF2D1B9F1000F0DD19BF804300A
:105DC0005A0609D5B5F8683003F00703022B03D053
:105DD00029462046FEF766F9D4F8E43013F00103B3
:105DE00004D15A4629462046FEF76EF9FF2F7FF46C
:105DF00056ACD4F8E430DB047FF551AC039818308E
:105E000000F042FF4BE433465A4629462046FEF74F
:105E10005BF94FF00109C6E7CDE900650399334608
:105E20005A462046FDF7A2FC0746BCE7340E002088
:105E300038B50D46044601F016FE3DB1204600F08F
:105E40000FFE2046BDE8384001F014BE4FF47A71D1
:105E5000284608F001F9FD2384F8DE30D4F8E43058
:105E600023F004030546C4F8E430204600F094FD16
:105E7000D4F8E400FFF797FA0028E2D12B4604F1AA
:105E80009C0244F6C3712046FFF712FAD9E70000DE
:105E900038B5044601F0E7FD2046FFF78FFA38B326
:105EA00044F6C3712046FFF70BF9D4F8E430DA0466
:105EB00023D594F8DF30022B42F210750AD9033B48
:105EC0004FF47A6202FA03F31D444EF660239D42BA
:105ED00028BF1D46A8420BD91149204601F04EF9B2
:105EE00094F8DF30092B0BD9D4F8E430DB040DD45F
:105EF0002046BDE8384001F0BDBD4FF47A65E9E7C2
:105F00000133DBB2022B84F8DF30EDD82B4604F1ED
:105F10009C0244F6C3712046FFF7CAF9E8E700BFC8
:105F2000C6540100F8B50D460446FEF779FBA5F509
:105F30009F41403912290ED8DFE801F00A0A1927DB
:105F40000D2B2F1111420D464A90159433989C0049
:105F50002046FEF77EF9BDE8F840FEF767BB204615
:105F6000FEF782F8F7E72046FDF7C8FFF3E743495D
:105F7000234640F20222022001F0FCF90028EAD177
:105F80000921204602F060FFE5E72046FFF780FF89
:105F9000E1E7204600F0E2FCDDE7204600F0FCFCF3
:105FA000D9E7374804F12401FCF7FCFC94F83430BD
:105FB00023F0100384F834302046FEF747FECAE78A
:105FC0002046FEF7DBFBC6E72046FEF78DFFC2E763
:105FD0002368B3F86800C0F3041001F039FD0546EA
:105FE0000028B8D0FFF7B6F90646284601F03BFD79
:105FF000A36B9E4206D32046FEF722FF284601F0FF
:1060000039FDA8E7E36B9E42F8D3271D394605F119
:10601000160006F0F0F994F8353083429FBF2B7DCF
:1060200023F01F0343F008032B75394605F12600C2
:1060300006F0E1F994F8353083429FBF6B7D23F081
:106040001F0343F008036B75A36B04F114029B1B41
:1060500044F6CC712046FFF72BF9CFE72046FFF737
:1060600085F978E72046FDF713FB74E7204600F03A
:106070000BFE70E7204600F057FE6CE70000FFFFC4
:10608000340E002008B590F86D200346406812B920
:1060900050B1FBF775F80028FBD0013A83F86D206A
:1060A00002685A600023036008BDB0F8683003F04E
:1060B0000703022B70B504460D4601D0FBF760F8CC
:1060C00090F86D30102B07D1FFF7DCFF06464068D3
:1060D000FFF732F90023736000232B60636853B12C
:1060E0001A461B68002BFBD1156094F86D30013304
:1060F00084F86D3070BD6560F7E700002DE9F0476A
:10610000089C804616461F460D46A1B191F8A53160
:106110000A2B10D13B4600F1100258F8041B43F83B
:10612000041B9045F9D1B5F8A6311B013B83002330
:10613000BB7601272DE0E4B12046FEF7B7F8C0B1E9
:10614000B4F8683003F00703032B0DD10422214675
:106150002846FDF7EBFE41F2883304F1280244F6AD
:10616000C8712046FFF7A4F839462046FEF7B4FB75
:10617000DFE73A4629464046FDF74AFA0746002837
:10618000D7D1D5F8E43013F4805905D03046FFF765
:10619000D3F83846BDE8F087002C37D1A5B3B5F960
:1061A000A61102224046FEF72BFB04460028EDD044
:1061B0002DB1AB6F1BB102224146032098474FF02F
:1061C000010876B3B4F8683003F00703022B2FD12F
:1061D000394B53F839104FEAC90271BB374B03EB07
:1061E0000209C9F80460002D60D000231A46194640
:1061F000184602F0BDFA824600284ED13046FFF71D
:106200009BF8C9F804A0C4E72946CAE7B4F8683087
:1062100003F00703012B09D1032384F86B30804678
:1062200036B941462046FDF7E1FDB2E7C846C8E76A
:106230007621304602F008FEF3E709F10109B9F1D1
:10624000110FC6D10020FEF727FA08B9FAF798FF18
:1062500090F86A30DA07F6D5814606E00F2BF5D8BC
:1062600090F86D209A4288BF8146FEF715FA20B952
:1062700099F86D30012B08D8E8E790F86A30DB0711
:10628000F3D599F86D30102BE8D14846FFF7FAFEA8
:1062900081464068FFF750F8A3E74368B5F8A621A8
:1062A0005A80D9F804300360C9F8040049462046F2
:1062B000FFF7FBFEB5E700BFA4170020A0170020E2
:1062C0002DE9F0470C468CB005460846174699461E
:1062D00001F0C9FBFEF7A4F9002C3ED0B4F9A611D9
:1062E0002846FFF72CF80646002838D0B0F868801A
:1062F000C8F304182846FEF7FBFF00285FD1B8F169
:10630000000F5CD0204601F0B5FB404601F0A0FB39
:106310000446FEF78BF9204601F0A5FBFEF780F955
:10632000002C4ED0B4F9A6112846FFF708F806460F
:1063300000964B463A4621462846FFF7DFFE0028E6
:106340000CBF6FF075060026FEF770F9204601F0CD
:1063500091FB30460CB0BDE8F0872146C0E72846E7
:10636000FEF7C6FFB0460028C4D1B2465046FEF73D
:1063700097FC824678B9B8F1000F2BD098F83430EA
:106380005A0727D5B8F83630DB0723D5D8F80030C0
:10639000B3F86880ACE70AF10401284606F02BF850
:1063A0009AF835309842E1D3B8F1000F05D098F84B
:1063B00035209A4238BFD046D8E7D046D6E7002CE1
:1063C000B6D11FB17621384602F03EFD6FF075065A
:1063D0000024B9E703AA39462846FEF7B7FC061E93
:1063E00030DB07A8FEF79CFF58B15EBB07AA05F19A
:1063F000100C28686968134603C3083565451A46BA
:10640000F7D1BDF82E302CBBBDF92E0001F020FBDA
:106410000446FEF70BF9204601F025FBFEF700F9D4
:106420002CBB214607A8FEF78AFF4B4600903A4650
:10643000214607A8FFF762FE20B39DF82C20CCB9B7
:10644000FAF79EFE1FB17221384602F0FDFC6FF094
:10645000710679E7B4F9A6219A4208D0204601F0E6
:1064600009FBB4F9A621BDF82E309A42CCD1B4F97B
:10647000A611D7E7A36F002B3FF466AF03A9022054
:10648000984761E76FF075065EE770B50546002630
:106490002846FFF7F7FD044600B970BD6068762115
:1064A00002F0D2FC6660F3E710F4007306D041F20C
:1064B000020383430CBF0120002070471846704739
:1064C0002DE9F04387B00C46054616460021102200
:1064D00002A8DDF838901F460AF09EFF0CB9FAF7C3
:1064E0004FFE802EB04628BF4FF080085FFA88F23A
:1064F000214602A805F09EFF3249102202A80BF0A7
:106500009FFF00285BD03049082220460BF098FFFF
:10651000002854D02378FF2B51D0B9454FD8FEF72F
:106520007FF82146CDF800903B4642462846FEF7CC
:106530006BFD044630B9FEF779F86FF00B0007B039
:10654000BDE8F08328B201F083FA054618B9FEF7DA
:106550006DF80020F3E701F086FAD5F8E420D104C5
:1065600003D51046FFF7A0FF18B1E38E43F00103F7
:10657000E38695F8E130DB0705D57F2E9EBFE38EDD
:1065800043F00203E3861046FFF78EFFA8B92846C2
:1065900001F070FAFEF74AF8284600F0FDF9D8E756
:1065A0003369013333612146FEF7D8FC3046FEF7EC
:1065B00013FD06460028F3D1E9E70026F6E76FF061
:1065C0001500BCE716550100F6540100F8B5054664
:1065D00017460E4609B9FAF7D3FDFEF721F8002455
:1065E0002046FEF75DFB044610B32368002BF2D073
:1065F00094F83520BA42F3D12DB1B3F86830C3F323
:1066000004139D42ECD1211D304605F0F4FEB84242
:10661000E6D328B201F01CFA38B1D0F8E4305B07B9
:1066200003D50549224600F026FA2046FEF708FC6D
:10663000BDE8F840FDF7FABFD65401002DE9F0415E
:106640000C6807460E461546FDF7EAFF2046FEF7A2
:1066500027FB044630B3D4F80080B8F1000FF5D022
:1066600094F834305B07F1D52FB1B8F86830C3F334
:1066700004139F42EAD194F835302B741022002184
:1066800028460AF0C9FE94F83520211D284605F059
:10669000D1FEB8F86830C3F304136B82A36B6B614F
:1066A000E36BAB61FDF7C2FF201E346018BF012011
:1066B000BDE8F08130B58FB0054610220021684654
:1066C0000AF0AAFE1E4B18684369013334D00AF061
:1066D0001DF82A7C29460446684605F0ABFE2822B0
:1066E000694604A805F0DCFE2A7C014615480BF03B
:1066F000E5FE698A14480BF0E1FE69694A1C07D07F
:10670000091B4FF47A731148B1FBF3F10BF0D6FE7D
:10671000A9694B1C0BD0A14284BF091B4FF47A73AB
:106720000B488CBFB1FBF3F100210BF0C7FE094809
:106730000AF0E4FC0FB030BD83685B689847C8E797
:106740003C580100053601001D360100803601006D
:1067500091360100B7370100044B186843690133D3
:1067600001D009F0D3BF83685B6818473C5801002B
:1067700073B505460E46FFF7EFFF2B680446B3F8E6
:106780006800C0F3041001F063F9AA6B531C1EBF2C
:106790004FF47A73121BB2FBF3F2EB6B591C07D068
:1067A0009C428FBF00231B1B4FF47A71B3FBF1F3A4
:1067B000E98E11F001041FBFD0F8E44084F4805446
:1067C000C4F30034E401890748BF44F04004CDE934
:1067D0000046281D95F8351000F09BFB02B070BDF7
:1067E00041F2020383430CBF0120002070470000E8
:1067F0002DE9F743D0F8E440B0F9A6718046204671
:106800000E46FFF7EDFF00285AD009B9FAF7B8FC99
:1068100000252C464FF0010906EBD40393F82920FC
:10682000E34303F0070309FA03F31A4211D0E0B27D
:1068300002F0BEFD034660B1428A417C007C0095B7
:1068400004F0A6FB054620B90025284603B0BDE8A4
:10685000F0830134102CDFD1002421463046FEF7AE
:1068600099FB0446A0B9D8F8E40082051ED5FFF7CD
:10687000B7FFD8B1FFF770FF204B03447361214687
:1068800030692B46324603B0BDE8F04304F0A5BBA7
:106890002368B3F86830C3F304139F42DDD129465F
:1068A000FFF766FF05460028D7D1CDE77469FFF7EB
:1068B00053FF4EF66023241AB4FBF3F4A1B2DFE7D2
:1068C00014F48054C0D1254610E094F834305B07AE
:1068D0000CD52368B3F86830C3F304139F4205D185
:1068E0002946FFF745FF05460028ADD02046FEF7B4
:1068F000D7F904460028E8D1A7E700BF0046C32324
:10690000F7B50446D0F8E4000F461546FFF768FFD8
:1069100010BB1AB911462046FFF76AFF00902B46BC
:106920003A460021204600F077FC11E095B9314647
:106930002046FFF75DFF00902B463A460021204697
:1069400000F06AFC3046FEF747FB06460028EDD112
:1069500003B0F0BD0020EEE70026F3E738B50546AA
:10696000B0F86800C0F3041001F072F8044608B9EA
:10697000FAF706FC01F077F8D4F8E4305B0705D5A8
:10698000002205F108012046FFF7BAFF2046BDE8C6
:10699000384001F06FB80000F8B5044601F063F824
:1069A0000CB9FAF7EDFBD4F8E430DA044AD4284FF6
:1069B000284894F8DE60394607F04EFB44F6C6716D
:1069C00005462046FEF77CFBFC2E01D9B84203D8D1
:1069D000D4F8E4305B0735D5FC2E94BF00220122A9
:1069E00000212046FFF78CFFFFF7B6FE94F8DE305B
:1069F000C4F8CC00022B1AD9FC2E1DD8164B174810
:106A0000B3F9007004F17C063146FBF7CBFF00239D
:106A1000C4E91F3544F6C6731048A4F88630C4F89C
:106A20008840A4F884703146FBF786FF0AE0B5F58C
:106A30007A5F28BF4FF47A550133DBB284F8DE3039
:106A4000002BDBD12046BDE8F84001F013B800BFB1
:106A5000C027090070050300300A0020340E002012
:106A6000002280F8DE20D0F8E42042F00402C0F8D2
:106A7000E420FFF791BF73B514460E460546FFF7B5
:106A80006BFE0A30C4E90E0000212046FFF770FEBD
:106A90000023009032461946284600F0BDFB02B0A4
:106AA00070BD000010B50A49082204460BF0C8FC6E
:106AB00048B12378FF2B08D1607800F00F00831EC7
:106AC0005842584110BD0120FCE70020FAE700BF02
:106AD000F654010038B5044608460D4601F01FFA89
